:020000040800F2
:10000000B8140020810200089D2F00082D2B000845
:10001000992F0008112A0008BB34000800000000D6
:100020000000000000000000000000000531000892
:10003000152A000800000000970200089902000835
:100040009B0200089B0200089B0200089B0200081C
:100050009B0200089B0200089B0200089B0200080C
:100060009B0200089B0200089B0200089B020008FC
:100070009B0200089B0200089B0200089B020008EC
:100080009B0200089B0200089B0200089B020008DC
:100090009B0200089B0200089B0200089B020008CC
:1000A0009B0200089B0200089B0200089B020008BC
:1000B0009B0200089B0200089B0200089B020008AC
:1000C0009B0200089B0200089B0200089B0200089C
:1000D0009B020008793200089B0200089B0200087E
:1000E0009B0200089B0200089B0200089B0200087C
:1000F0009B0200089B0200089B0200089B0200086C
:100100009B0200089B0200089B0200089B0200085B
:100110009B0200089B0200089B0200089B0200084B
:100120009B0200089B0200089B0200089B0200083B
:1001300000F002F800F094F80AA090E8000C824465
:100140008344AAF10107DA4501D100F089F8AFF242
:10015000090EBAE80F0013F0010F18BFFB1A43F0A5
:10016000010318475854000078540000103A24BF87
:1001700078C878C1FAD8520724BF30C830C144BF0C
:1001800004680C607047000000230024002500264E
:10019000103A28BF78C1FBD8520728BF30C148BFEA
:1001A0000B6070476E2900F03984702900F0A98730
:1001B000662905F08B80652905F08880672905F0A0
:1001C00085806129AFF3008003681B0A28BF41F0D6
:1001D0008001692900F0E683642900F0E383752932
:1001E00000F0E0836F2900F03687782900F07587EA
:1001F000E92900F0D186E42900F0CE86F52900F047
:10020000CB86EF2900F03387F82900F07487036864
:10021000DB0928BF41F08001632900F05286732971
:1002200000F05786E32901F03181F32901F036818E
:10023000002070471FB59DE8030000F043FB01F06C
:1002400015F804000020002104F0E0FE401C60606E
:100250000020002104F0C4FEE0601FBD10B510BDF9
:1002600001F059FA1146FFF7E5FF04F06DFA01F0CD
:1002700001FD03B4FFF7F2FF03BC00F0FDFA00003C
:100280000948804709480047FEE7FEE7FEE7FEE72A
:10029000FEE7FEE7FEE7FEE7FEE7FEE70448054966
:1002A000054A064B7047000019320008310100086A
:1002B000B8040020B8140020B8100020B8100020A6
:1002C000004870475404002070B5064600F0DEFA7E
:1002D000056806F10B0020F00704B4429CBF002023
:1002E00070BD2B466A68BAB11068A04210D304F101
:1002F000080188423CBF5068586007D35168101904
:1003000041601168091B016058601460101D70BDC8
:1003100013465268002AE7D12146284600F0BEFA6B
:100320000028DED170BD70B50446051F00F0AEFA9E
:100330000068002C14BF446870BD002C18BFAC428C
:100340003CBF20466468F8D301680A18AA4218BF67
:10035000456003D12A6805461144016028684119A7
:10036000A1421CBF6C6070BD61686960216808446F
:10037000286070BD7CB51D4616460C00009001D06B
:100380002044401E074B7B442A4669460190304674
:1003900000F06DFD05461CB10020694600F07AFDB5
:1003A00028467CBD150B00000FB47CB50C0009AAD3
:1003B000009001D02044401E084B7B4469460190C8
:1003C000089800F054FD05461CB10020694600F075
:1003D00061FD28467CBC5DF814FB0000E10A0000CA
:1003E00070B50C460546012A05D02878800600D550
:1003F000EA69002302E0012305E05B1C934202D27C
:10040000E05C0028F9D1A869E618C01AA861286A3A
:1004100018442862284600F08BFA04E0D5E901214F
:1004200014F8010B9047B442F8D3284600F096FA2E
:1004300070BD00002DE9F05F894604464FF0000AC8
:10044000DFF874B1FB44C0F820A02046E16888477B
:10045000002874D0252806D0D4E901219047206ACD
:10046000401C2062F1E700265F462046E16888478D
:100470002028054607DB312D05D2781910F8200C0D
:1004800008B10643F1E7B00701D526F00406C4F829
:100490001CA00027C4F818A02A2D09D0284603F074
:1004A000C8F838B304EB8708303DC8F8185019E095
:1004B00059F8041B204604EB87029161E1688847E4
:1004C000012F054618D1E069002820DA26F0200621
:1004D0001DE0D8F8180000EB800005EB4000303834
:1004E000C8F818002046E1688847054603F0A1F8DF
:1004F0000028EED1012F0AD02E2D08D12046E16828
:1005000088477F1C0546022F46F02006C4DBA06901
:10051000002803DA404246F00106A061F00701D04E
:1005200026F010066C2D0BD0682D09D04C2D39D03B
:100530006A2D35D0742D35D07A2D33D016E038E0C1
:10054000E1682F4620468847B842054609D16C2FFE
:1005500026D04FF48060E168064320468847054670
:1005600004E06C2F1AD04FF4807006430DB3A5F150
:100570004100192802D8203546F400664A4629462B
:10058000204626604E46FFF70DFE80B101280BD0B5
:10059000F61D26F0070000F1080956E74020E4E7C1
:1005A0008020D8E70020D6E706F104094DE7284669
:1005B00052E7206ABDE8F09F904F000000F0FEBDBA
:1005C00010B5002000F042FEFFF748FEBDE81040E5
:1005D000012000F051B940EA0103024630B59B0703
:1005E00010D14FF0013400E008C208C91D1B9D4323
:1005F00015EAC41FF8D013F0FF0102F8011B0DD05B
:100600001B0AF8E711F8013B002B02F8013B05D06B
:1006100011F8013B002B02F8013BF3D130BD10B5BE
:10062000431C02E010F8011B71B18107FAD14FF0B1
:10063000013202C88C1A8C4314EAC211F9D0C01AD4
:100640000A0603D0C01E10BDC01A10BD0A0401D096
:10065000801E10BD0902FCD0401E10BDCBB22AB1D5
:1006600001788B4203D0401C521EF9D10020704704
:10067000032A40F2308010F0030C00F0158011F8CE
:10068000013BBCF1020F624498BF11F801CB00F8A6
:10069000013B38BF11F8013BA2F1040298BF00F8FA
:1006A00001CB38BF00F8013B11F0030300F02580B7
:1006B000083AC0F0088051F8043B083A51F804CBDE
:1006C000A0E80810F5E7121D5CBF51F8043B40F8A4
:1006D000043BAFF30080D20724BF11F8013B11F8AF
:1006E00001CB48BF11F8012B24BF00F8013B00F8F3
:1006F00001CB48BF00F8012B704710B5203AC0F07D
:100700000B80B1E81850203AA0E81850B1E8185012
:10071000A0E81850BFF4F5AF5FEA027C24BFB1E84F
:100720001850A0E8185044BF18C918C0BDE81040C0
:100730005FEA827C24BF51F8043B40F8043B08BFC9
:100740007047D20728BF31F8023B48BF11F8012B90
:1007500028BF20F8023B48BF00F8012B70474FF03C
:1007600000020429C0F0128010F0030C00F01B807E
:10077000CCF1040CBCF1020F18BF00F8012BA8BF8C
:1007800020F8022BA1EB0C0100F00DB85FEAC17C50
:1007900024BF00F8012B00F8012B48BF00F8012B03
:1007A00070474FF0000200B5134694469646203934
:1007B00022BFA0E80C50A0E80C50B1F12001BFF41A
:1007C000F7AF090728BFA0E80C5048BF0CC05DF880
:1007D00004EB890028BF40F8042B08BF704748BFCE
:1007E00020F8022B11F0804F18BF00F8012B704742
:1007F0004FF0013C50F8042B51F8043B9A4221D1B0
:10080000A2EB0C03934313EACC1317D150F8042B3B
:1008100051F8043B9A4215D1A2EB0C03934313EA1F
:10082000CC130BD150F8042B51F8043B9A4209D158
:10083000A2EB0C03934313EACC13DBD04FF0000080
:10084000704700BFD01A01BAB1FA81F101F0180166
:1008500022FA01F0CB40C1F12001DBB2C0B2C01AD4
:100860002CFA01F3D11A914311EAC311E6D1704772
:10087000704770477047000001491820ABBEFEE783
:1008800026000200004870475404002000487047CA
:100890005C040020704770477047704738B50446C5
:1008A0000A4600206946AFF30080002808BF38BD23
:1008B00002460099204600F0DDFC012038BD0120F1
:1008C00000F022BFF8B5AFF30080054600200C46CB
:1008D000102000BF0646A819A0420DD9324669462D
:1008E0000020AFF30080070008BF00F00DFF009864
:1008F000A04218BF0546C419FFF7C8FF05600746A8
:10090000F01D20F007004619284600F00AF8B4420E
:1009100008BFF8BDA21B31463868BDE8F84000F0BA
:10092000A9BC00210160C0E9011070471020704788
:1009300070B5044685690068C10601D5302600E01F
:100940002026C00707D070BDD4E90121304690476A
:10095000206A401C20626D1EF6D570BD70B504463D
:1009600085690078C00707D170BDD4E90121202036
:100970009047206A401C20626D1EF6D570BD096844
:100980004A0501D540B27047C905FCD500B2704791
:1009900009684A0501D5C0B27047C905FCD580B2C7
:1009A000704700002DE9F0410646002410687529C3
:1009B000314616A510D0FFF7E2FF002802DA4042C8
:1009C00013A507E031688A0701D512A502E049079F
:1009D00004D511A5012401E0FFF7DAFF00210A2266
:1009E00006F1240709E0B0FBF2FCB0FBF2F302FBD6
:1009F0001C00303078541846491C0028F3D1234697
:100A00002A463046BDE8F04100F09CBC00000000E2
:100A10002D0000002B00000020000000116802687B
:100A2000006A530501D508700AE0D30501D5088096
:100A300006E0130603D5C217C1E9000200E0086012
:100A40000120704770472DE9FF4F0C461E464FF0BE
:100A5000FF378BB0D2E90001DDF860800A908A464A
:100A6000C1F30A5505B93D46002108464FF0000084
:100A7000BAF1000F00F4400005DA00EB80004FF4FB
:100A8000400101EA50004FEA9059B9F1010F00DD31
:100A9000B9460A9850EA4A000ED044F61050A5F222
:100AA000FF3545432F14B8F1000F1ED07542291EA3
:100AB0001EDDC9F100021CE0B8F1010F4FF000008B
:100AC00001D0302103E0F24305E02154401CB04244
:100AD000FBDB30460022002121540B99C1F808802D
:100AE000C1E900200FB0BDE8F08FBD1B6D1CDEE733
:100AF0004A4600DA694206A800F056FD06AB93E8C4
:100B0000070003AB83E8070050460A9901F04BFB4E
:100B10008DE80700A0F500501F3800900398002DC5
:100B20000ADD42F21F014A460844002303A903904C
:100B3000684601F0F7FD09E0A0F500504A461F386D
:100B4000002303A90390684601F016FE8DE8070014
:100B50000004000C03D04FF0FF30410800E01046C5
:100B6000B8F1000F03D00022009215461EE0751E5A
:100B700005D400F099FB303262556D1EF9D5B346AD
:100B80000122084302D000227F1C04E02078302894
:100B900001D100227F1E002A099784D01DE0112D6B
:100BA00007DA00F081FB303262556D1C50EA010219
:100BB000F5D1084302D00098C8B10EE00021681EAC
:100BC00005E0235C625C63542254401E491C814250
:100BD000F7DBAB46A81B401E0990002004F80B0071
:100BE0000B98099AC0F80880C0E9002B7AE7112613
:100BF0004FF0000857E72DE9F04F88460446D21D14
:100C000022F0070191B0D1E90001CDE90A0102F01B
:100C100063FC02460B98C00F01D02D2007E020682E
:100C2000810701D52B2002E0202101EAC000032A20
:100C3000099001D0072A05DB03464146204600F013
:100C4000DBFB0BE12078800601D5E06900E006209F
:100C5000B8F1650F814606D0B8F1660F18D0B8F12B
:100C6000670F70D131E00020B9F1110F009001DB66
:100C7000112301E009F101030AAA01A90CA8FFF759
:100C8000E2FEDDE90C70002609F10105834647E02C
:100C900001204B4600904FF000470AAA01A90CA87A
:100CA000FFF7D1FEDDE90DB00C995D46002610B9C5
:100CB00009F101000D18B9EB050003D4C0F1FF36AE
:100CC00009F10105A5EB09002BE0B9F1010F01DAEB
:100CD0004FF001090020B9F1110F0090484601DDE5
:100CE000112300E003460AAA01A90CA8FFF7ABFEF6
:100CF000DDE90C704D4600268346207800070AD4B3
:100D0000AB4500DA5D4601A8012D04DD411911F85B
:100D1000011C302907D04F4502DA17F1040F04DA1D
:100D2000012082460FE06D1EEEE7002F02DCED1B76
:100D30003E4403E0781CA84200DD7D1CB81B00F196
:100D4000010A4FF000472078000703D4AA4501DBD1
:100D50004FF0FF3A0021B7F1004F0DF143088DF835
:100D6000431024D002202B23002F01DA7F422D23B1
:100D70000A21021EA0F1010000DC5FB197FBF1FC2B
:100D800097FBF1F201FB1C7C17460CF1300C08F8C4
:100D900001CDEEE7A8F1010003702188090501D516
:100DA000452100E06521A0F1010800F8011C099827
:100DB0000FA9A1EB0807FF1D00B10120411901EBAC
:100DC000EA70A1693844081A401EA0612078C00664
:100DD00002D42046FFF7ACFD099828B1D4E90121DF
:100DE0009047206A401C20622078C00622D5204609
:100DF000FFF79EFD1EE0002E04DBB34502DD01A8D7
:100E0000805D00E03020D4E901219047206A401C39
:100E10002062761CAAF101005FEA000A0AD100F004
:100E200025FAC0680168405CD4E901219047206A36
:100E3000401C2062281EA5F10105DCDC07E0D4E996
:100E4000012118F8010B9047206A401C2062381ECF
:100E5000A7F10107F3DC2046FFF780FD032011B066
:100E600041E6000001694A1C02610878704700B53C
:100E70008FB0CDE901310021059105497944CDE9D3
:100E8000031011466846FFF7D5FA0FB000BD000009
:100E9000E5FFFFFF0A6802F8010B0A607047D1E91D
:100EA00000239A4202D2531C0B601070704710B599
:100EB000436913B1AFF3008001E0FFF791FA01201D
:100EC00010BD127800F124010A7000224A7001223C
:100ED000EDE711684FF0FF32E9E700002DE9FF5F11
:100EE00015468A460446DFF8AC80F8440027D8E966
:100EF00000103E46CDE9001010E03AF816106A46A0
:100F000002A800F0C3FB411C07D02178890603D555
:100F1000E269391891420DD80744761C2078800682
:100F200002D5E069B84205DDAE42E6DB3AF81600CC
:100F30000028E2D1A069C01BA0612046FFF7F8FCA1
:100F4000D8E90010CDE90010002017E03AF8181099
:100F50006A4602A800F09AFBB0F1FF3F81460BD031
:100F600000250DF1080B05E0D4E901211BF805006F
:100F700090476D1C4D45F7D308F10100B042804603
:100F8000E4DB206A384420622046FFF7E7FCBDE836
:100F9000FF9F0000FE4400002DE9F0418046D21D75
:100FA00022F007020025D2E90002F52915A614D087
:100FB000011E72F1000106DA0023D0EB030063EB9F
:100FC000020211A608E0D8F800108B0701D50FA681
:100FD00002E0490701D50EA601251146002408F1BB
:100FE000240704E000F060F930323A55641C50EAFE
:100FF0000102F7D12B46324621464046BDE8F0417A
:1010000000F0A0B9000000002D0000002B0000003F
:101010002000000030B4002100F1240408E002F0B8
:101020000705D208303542EA4372DB086554491C93
:1010300052EA0305F3D10468002310A2250707D55F
:10104000A40600D421B1C46901230DA2641EC461A9
:1010500030BC00F077B910B5044621461068FFF7A0
:1010600097FC02462046BDE810400023D2E7D21D7F
:1010700022F00701D1E90023CCE7000000000000C6
:1010800030000000F0B40D460188090502D5214C5E
:101090007C4402E01F4C7C440E34002100F1240605
:1010A00008E002F00F071209E75D42EA03721B092C
:1010B0007754491C52EA0307F3D102780023120740
:1010C00004D5702D06D009B1022311342246F0BC9C
:1010D00000F038B901231034F8E770B504460D4626
:1010E00021461068FFF754FC024629462046BDE819
:1010F00070400023C6E7D21D22F00703D3E9002386
:10110000C0E70368126843F0200303600823C3614B
:101110000023B7E7604300000FB4002300B589B097
:101120000CA900910B99CB60214B7B440693214B7A
:101130007B44079304236FF00042CDE901321E4A3D
:101140007A446B4608920246002004F021F909B067
:101150005DF814FB70B506464FF0FF3015460C469F
:10116000324686B00091CDE9010169460020049025
:1011700004A8FFF7D1FF02460498211825B108B151
:10118000084600E020462860049800280DD0002A78
:1011900002DD0098884208D03246081B6946009458
:1011A000CDE9010404A8FFF7B7FF06B070BD000049
:1011B000770300008F030000EF0100002DE9F047E6
:1011C00091460E4680460446002514F8017B2FB157
:1011D00000F044F80068C05DC007F6D12B2F02D0A4
:1011E0002D2F1ED0641E4A463146204600F07AF963
:1011F00026B13268A24201D1C6F800804FF0020445
:101200006A0518D50023D0EB030563EB01025D1BD3
:10121000934109DB0023D0EB030063EB0101BDE840
:10122000F08745F48065DEE7FFF74AF804600020A8
:101230004FF00041F3E7021E71F10002EFDAFFF711
:101240003FF804604FF0FF304108E8E710B500F0C8
:1012500043FABDE8104000F039BA704710B500F00D
:1012600005F8001D10BD00BFA53D000000487047F7
:1012700074040020034640688C46002818BF88424A
:101280003CBF03464068F8D318681844884207D02A
:101290000CF1030020F00700001D411A521A01460C
:1012A000081D0A60FFF73FB830B5B0F10A024FEAF7
:1012B000900E71F100034EEA817EB0EB0E0061EBFF
:1012C00091014FEA101E4EEA017E10EB0E0041EB39
:1012D00011114FEA102E4EEA016E10EB0E0041EB99
:1012E00011214FEA104E4EEA014E10EB0E0041EB79
:1012F0001141401841F100014FEAD00040EA41702D
:101300004FEAD10110EB80054FEA810444EA907462
:1013100044EB01046D1944EB0404521BA3414FF04C
:10132000000348BF0A3200D530BD401C41F1000126
:1013300030BD10B50446FFF791FF0068005D00F076
:10134000010010BD2DE9F0470D469946924604462E
:1013500000F124080168880604D5E06921F0100135
:10136000216000E00120A84201DD471B00E00027CA
:10137000A1697A1902EB0900081AA0612078C00659
:1013800002D42046FFF7D4FA002608E0D4E9012170
:101390001AF806009047206A401C761C20624E45D1
:1013A000F4DB2078C0060AD52046FFF7C1FA06E034
:1013B000D4E9012130209047206A401C2062381E69
:1013C000A7F10107F4DC07E0D4E9012118F80500D2
:1013D0009047206A401C2062281EA5F10105F3DC1D
:1013E0002046FFF7BBFA2078000602D50220BDE8B0
:1013F000F0870120FBE700002DE9F0411F4604467D
:1014000003260168072A01F4006004DB08B116A571
:1014100005E016A503E008B115A500E015A521F02B
:1014200010002060A069C01EA0610FB1401EA06125
:101430002046FFF77DFA4FB1D4E9012138469047A5
:10144000206A401C2062C01C206206E0206AFAE785
:10145000D4E9012115F8010B9047761EF8D22046F9
:10146000FFF77CFABDE8F0814E414E006E616E00E0
:10147000494E4600696E660010B5436913B1AFF37B
:10148000008001E0FFF72AFD012010BD128800F165
:10149000240182840022C2840122EDE711684FF00A
:1014A000FF32E9E7426842B1016811F8013B23B11C
:1014B000521EC0E90012184670470121C160881E03
:1014C000704742685AB1C368016843B983688B4268
:1014D00005D0491E521CC0E90012002070474FF091
:1014E000FF3070472DE9F74F4FF000091546CA4607
:1014F000009C14F8010B302801D0ADB115E014F8B0
:10150000010B4FF00109782803D0582801D04DB1C4
:101510000BE00DB1102D08D14FF0000914F8010BAC
:10152000102502E0082500E00A2500274FEAE57BA8
:101530003E46B84616E0A5FB07234FF0010905FB20
:1015400008000BFB0731030C05FB0616D7181FFA22
:1015500080F846F10006381E76F5803000D3CA4682
:1015600014F8010B294600F0FBF80028E3DA019893
:1015700038B1B9F1000F01D0641E00E0009C019861
:101580000460BAF1000F08D0FEF79AFE0221016054
:10159000C81E014603B0BDE8F08F310441EA17418F
:1015A00048EA0740F6E700002DE9F0478146164675
:1015B0008AB0354878440DC88DE80D00324878442B
:1015C000801C03AC0DC884E80D0041F69B30084434
:1015D000372190FBF1F290FBF1F5A5F1800501FBBD
:1015E00012041B3C02D56442012000E00020DFF819
:1015F00098A080460027FA44AAF1BE0A0EE0E00750
:101600000AD03246684607EB470101230AEB810105
:1016100001F0B2F88DE8070064107F1C002CEED1B9
:10162000194F7F44AE3F19E0E80715D007EB0410CF
:101630000DF1180A90E80E008AE80E00C068F0422A
:1016400001D1981908903246012306A903A801F098
:1016500093F803AB83E807006D10641C002DE3D101
:101660004FF0010332466946B8F1000F03A802D0DB
:1016700001F058F801E001F07FF8C9E90001C9F86C
:1016800008200AB0BDE8F087E03E000070B51646BD
:101690000C460546FFF7E2FD036893F801010128B7
:1016A00006D0FF2C0FD8185D68B101202C7070BDDA
:1016B000D3F807013246214603F2071303442846B4
:1016C000BDE8704018474FF0FF3070BD002801D0D2
:1016D000FFF7D2B87047000010B5002102A000F05B
:1016E000D2FA012010BD0000534947414252543AFA
:1016F0002041626E6F726D616C207465726D696EEF
:101700006174696F6E00000010B500F0D5FABDE895
:101710001040FFF7DBBF7546FFF7B4F8AE46050093
:101720006946534620F00700854618B020B5FEF7FD
:10173000B5FDBDE820404FF000064FF000074FF028
:1017400000084FF0000B21F00701AC46ACE8C009DF
:10175000ACE8C009ACE8C009ACE8C0098D467047E8
:101760003A2800D2303820F02002412A01D3A2F1D9
:101770003700884201D34FF0FF3070472DE9FF4F0B
:1017800006468BB00878FF2806D0491C2D2805D0C6
:1017900000244FF0000908E000200CE00124F8E7E5
:1017A00009EB8903491C00EB43090878FF28F7D1AE
:1017B00014B1C9F100008146107800252C46AA46D4
:1017C00029462D2801D02B2804D1521C2D2813D0B6
:1017D000002082468B461078FF280FD04FF0000C77
:1017E0000A21521CA5FB017804FB018105FB0C11A9
:1017F000C5194BEB0104EEE70120EAE7002108469A
:101800004FF00000BAF1000F02D000EB800040085A
:10181000C0F38157012F01DD4FF0FF370E9955EAD4
:10182000040009EB01080BD04FF0020918F5FA7F0C
:1018300016DA4FEACA70002F706008DD012007E059
:101840004FEACA70C6E900B00FB0BDE8F08F0020C3
:101850003060FEF735FDC0F800901821084616E00C
:10186000B8F5FA7F18DD002F02DAF748784401E076
:10187000F6487844D0E90010C6E9001040EACA7082
:101880007060FEF71DFDC0F80090142108460FB0EF
:10189000BDE8F04F03F017BD002108464FF00000EF
:1018A000B8F10001099002DAC7F1000200E03A46FF
:1018B00001DAC8F1000106A8FFF776FE06AB93E84F
:1018C000070003AB83E8070044F23E005BEA040133
:1018D0000090584604D144F21E012C465D4600910A
:1018E000210C0904014306D10099240444EA15445B
:1018F0002D041039009104F07F41014306D1009975
:10190000240244EA15642D020839009104F0704164
:10191000014306D10099240144EA15742D01091FE1
:10192000009104F04041014306D10099A40044EA2B
:101930009574AD00891E009104F00041084304D164
:1019400000986D196441401E00904FF001033A4623
:101950006846B8F1000FCDE9014503A902DD00F0AA
:1019600020FF01E000F0F3FEBAF1000F04460D463F
:1019700001D084F00044002108464FF0000009998E
:1019800040F2FF77484010F00C0F07D124F00040E0
:10199000284303D0C4F30A50B84212D1FEF790FC9A
:1019A000C0F80090C4F30A50B8420AD1A84878445D
:1019B000D0E90010C6E9001004F00041084370604F
:1019C00042E7C6E900543FE72DE9FF4F1F464FF0BD
:1019D000000A4FF0FF38454691B0D7E90146CDF8EF
:1019E0003CA0FFF743FCC0680168405C1090B969F7
:1019F00012986D1C8847396A814688470028F6D1BD
:101A0000B9F1FF3F0AD0002E24F4D06411DDB9F102
:101A10002B0F08D0B9F12D0F0BD102E0404615B0C5
:101A200013E744F48064B96912986D1C8847761EE8
:101A30008146600504A901D52D2000E02B20002E51
:101A400001F1010B0DF130088DF810003FDDB9F107
:101A5000690F08D0B9F1490F05D0B9F16E0F02D066
:101A6000B9F14E0F1CD13B4601A8009580E8500209
:101A7000DDE912126FF0020003F08EFCC11CCED122
:101A80000EE0B96912986D1C884781461398761E3E
:101A900044F4007405600F98401C002E0F9016DD72
:101AA000B9F1300FEDD0B9F1780F02D0B9F1580F7C
:101AB0000DD10F9801280AD13B46CDE90054DDE94C
:101AC0001212001F029603F065FCC11CA7D11099E9
:101AD00089453ED144F0800406E01399681CAAF1C0
:101AE000010A44F400740860B9696D1C1298761EEE
:101AF000884730288146F0D02BE01099894505D1E0
:101B0000200603D4761E44F0800418E0484601F015
:101B100090FD08B3761E0DF123018B4544F400744B
:101B200008D2A9F130000BF8010B200607D5AAF165
:101B3000010003E0200602D40AF101008246A0055C
:101B400002D51399681C0860B96912986D1C884702
:101B50008146002ED1DC53E0002E51DDB9F1650F36
:101B600002D0B9F1450F4BD1A00549D5B9696D1C1B
:101B70001298761E24F440748847002E81460CDDAE
:101B80002B2804D0B9F12D0F07D144F48074B96922
:101B900012986D1C8847761E8146E00501D52D21DF
:101BA00000E02B2108F8011BCDF8008021E0761E13
:101BB0000DF13901884544F400740CD2A9F13000CC
:101BC00010F0FF0088F8000002D10099884509D97B
:101BD00008F1010806E0E00501D51E4801E042F2E7
:101BE0000F708246B96912986D1C88478146139818
:101BF0000560002E04DD484601F01BFD0028D6D10B
:101C0000F96912988847FF2053468BF8000088F83E
:101C1000000000200A900B9004AA0CA90AA8FFF764
:101C2000ADFDA00502D46FF00100F8E614F0240F1A
:101C300012D0E0071CD13868DDE90A12031D3B60B1
:101C40000068C0E9001213E0743D0000663D00002A
:101C50002A3C0000F1D8FFFF0AA9684601F078FC91
:101C6000E00705D13868009A011D396000680260FC
:101C70002846D4E610B50446AFF300802046BDE800
:101C80001040FEF7F6BA70B505460C460A2000E093
:101C90006D1C00F039F835B128780028F8D102E041
:101CA000641C00F031F814B120780028F8D1BDE8A8
:101CB00070400A2000F028B810B5012805D0002196
:101CC00003A0FFF7E0FF012010BD09A1F8E7000025
:101CD00053494752544D454D3A204F7574206F6615
:101CE0002068656170206D656D6F7279000000007D
:101CF0003A2048656170206D656D6F727920636F61
:101D0000727275707465640008B569468DF80000DC
:101D10000320ABBE08BD10B5FEF7D2FA006810BDB7
:101D200010B50446FEF7CCFA046010BD2DE9FF4F54
:101D30001F464FF03C0987B04FF00042DDE9141018
:101D400001F10108DDF858A002EA4050039000209C
:101D500005908346054604460490B969461E0898D6
:101D60008847AAF1010A0290BAF1000F3BDD029800
:101D70002E2815D01021FFF7F3FC00282EDB4FF0A2
:101D8000010B0599014317D0B9F1000F0BDB4A464F
:101D9000C11700F0F5F905430C43A9F1040905E06A
:101DA000012004900BE008B145F0010501200590E9
:101DB000049820B9361D02E0049800B1361FB969B5
:101DC000089808F101088847BBF1000FAAF1010A41
:101DD0000290C9D00999C1F80080C5E7029870281F
:101DE00008D0502806D0F96908988847BBF1000F41
:101DF00014D04FE0002002900120BBF1000F0490AE
:101E000009D0B969089808F101088847AAF10109C1
:101E1000B9F1000F07DCF969089888476FF00100F5
:101E20000BB0BDE8F08F2B2804D02D280CD14FF03B
:101E3000FF300490B969089808F101088847A9F1B2
:101E40000109B9F1000FE6DD411CE4D00A21FFF7DA
:101E500087FC0028DFDB029908F1010801EB810112
:101E600000EB41000290B969089888470A21FFF702
:101E700077FC099AA9F10109B9F1000FC2F80080B5
:101E800001DD0028E7DAF969089888470499029883
:101E900000FB016655EA040004D004F0404109004B
:101EA00002D006E0039898E0A40044EA9574AD00DF
:101EB000B61E04F00041080002D16D196441761E7F
:101EC000159810F0240F03D04FF00B095C4803E085
:101ED0004FF028096FF07D008246564507DAAAEBDD
:101EE00006018944B9F1410F01DD4FF0410901209C
:101EF0000021A9F1010200F043F9024628400B46F7
:101F00002140084301D0012100E00021501E029130
:101F100043F1FF3128402140084301D0012000E077
:101F200000200299834651EA0B014FD00021084658
:101F30004FF00000039900F4400039B100EB80003D
:101F40004FF4400100EBD07001EA600080150128D9
:101F500002DD4FF0FF3000E013D0401C36D0029875
:101F600060B3BBF1000F0CD14A460120002100F004
:101F700007F928402140084301D0012000E000205B
:101F8000E0B101204A46002100F0FAF8034640196A
:101F90000A4661412D1A8C4111D3B9F1400F09DD78
:101FA000159810F0240F02D0AAF1340603E0AAF12C
:101FB000170600E0761C00254FF0004406E05B1E8B
:101FC00042F1FF3220EA030521EA0204CAF10100CE
:101FD000B04206DA1B4903980843019000200090A4
:101FE0000EE0039AC4F3D321E80A0A43164940EAF3
:101FF00044500A433146CDE90002684601F00EFB29
:10200000159810F0240F0BD01598C00715D138681B
:10201000DDE90012031D3B600068C0E900120CE01E
:1020200002A8694601F094FA1598C00705D13868EE
:10203000029A011D3960006802604046F0E6000027
:1020400002FCFFFF0000F07F0000F03F2DE9FF4F92
:1020500092461D4685B04FF00041DDE9124BDDE9A7
:1020600014727F1E01EA4B50414940F0FF4940EA9B
:102070000108002122F020004928049102D04E28B6
:1020800028D04CE03BA0012607C88DE80700A969CD
:102090000698641C88477F1E014606D41DF806007A
:1020A00018B121F0200181420BD0E96906988847D8
:1020B000032E34D0082E32D06FF0010009B0BDE8F5
:1020C000F08F761C032E01D0082EE0D1601CCAF8D8
:1020D0000000DCE7A9690698641C88477F1E2AD4A3
:1020E00020F02000412826D1A9690698641C884761
:1020F0007F1E20D420F020004E281CD1A96906980C
:10210000641C88477F1E48F4002849F48009CAF8F7
:10211000004001D4282806D0E969069888475FEA7C
:10212000CB7012D022E0A9690698641C88477F1EF4
:1021300001D4002803DAE96906988847BCE7292812
:10214000F1D1641CCAF80040E9E71BF0240F07D066
:1021500028680499031D2B600068C0E9001805E099
:102160002868021D2A600068C0F800902046A5E794
:102170000000F07F494E46494E4954590000000086
:10218000B2F120030AD5C2F1200301FA02F120FACC
:1021900003F300FA02F041EA0301704700FA03F189
:1021A0004FF0000070475FEA400C08BF91F0000F4D
:1021B0004FEA8C234FEAC12243EA51514FEA1C50A7
:1021C00018BF00F5F0404FEA300018BF41F0004161
:1021D0005FEA6C5C00F02980BCF1FF3F08BF40F073
:1021E00080407047130C06BF12044FF0100C4FF0E4
:1021F000000C130E04BF12020CF1080C130F04BFE5
:1022000012010CF1040C930F04BF92000CF1020CAC
:10221000D30F04BF52000CF1010C11464FF0000225
:10222000A0F11F00A0EB0C00704711F0004F08BF99
:10223000704731F000413FF4D5AF0B0C06BF0904E5
:102240004FF0100C4FF0000C0B0E04BF09020CF104
:10225000080C0B0F04BF09010CF1040C8B0F04BF19
:1022600089000CF1020CCB0F04BF49000CF1010CEA
:10227000CCF12003A0EB0C0022FA03F302FA0CF2DB
:1022800041EA030100F10100704720F07F4C80EA31
:10229000030023F07F47ACEB070303F57C5300F00A
:1022A000004003F1FF032DE980494FEA154B09B4C3
:1022B0004FEA144325EA0B4E24EA03480FF20426A2
:1022C00006EB132749083E785FEA320203FB0667F4
:1022D000C7F5000707FB06F64FEA54374FEAD64624
:1022E00006F1020607FB066CCCF1005C4FEA1C47C6
:1022F0002CEA074C07FB06F40CFB06F504EB15462D
:102300004FEA961634BF00204FF000404FEAD13715
:1023100006FB07FC4FEA1C4C0CFB0BF7D21B03FB24
:102320000CF761EB07010CFB0EF7B0EB074072EB0B
:1023300017420CFB08F734BFA2EB0742B2EB07428F
:1023400061EB17414FEA0C444FEA910706FB07FC8B
:102350004FEA1C4C0CFB0BF7B0EBC74072EB57324B
:1023600003FB0CF734BFA2EBC742B2EBC74261EBF1
:1023700057310CFB0EF7B0EBC70072EB57720CFB3A
:1023800008F734BFA2EBC702B2EBC70261EB57718B
:10239000039F4FEA816141EA921104EBCC044FEABA
:1023A000D1374FEA826206FB07FC42EA90124FEAFD
:1023B00080604FEA1C4C0CFB0BF7D21B03FB0CF7A5
:1023C00061EB07010CFB0EF7B0EB074072EB174215
:1023D0000CFB08F734BFA2EB0742B2EB074261EBFC
:1023E00017414FEA8C554FEA910704EB9C2406FBFA
:1023F00007FC4FEA1C4C0CFB0BF7B0EBC74072EB31
:10240000573203FB0CF734BFA2EBC742B2EBC74213
:1024100061EB57310CFB0EF7B0EBC70072EB577254
:102420000CFB08F734BFA2EBC702B2EBC70261EBAB
:10243000577115EB4C254FEA816141EA92114FEA41
:1024400082624FEAD13742EA901206FB07FC44F160
:1024500000044FEA80604FEA1C4C0CFB0BF7D21BC8
:1024600003FB0CF761EB07010CFB0EF7B0EB074029
:1024700072EB17420CFB08F734BFA2EB0742B2EB3A
:10248000074261EB174115EB1C154FEA813141EA18
:1024900092414FEA823242EA90424FEA80304FEA5C
:1024A0000C7644F1000448EA03434EEA0B484FF02F
:1024B000000EB2EB080C71EB030724BF62463946ED
:1024C0004EEB0E0E4FF0000B0018524149414BEB02
:1024D0000B0BB2EB080C71EB03077BF1000B24BF75
:1024E000624639464EEB0E0E4FF0000B001852417B
:1024F00049414BEB0B0BB2EB080C71EB03077BF183
:10250000000B24BF624639464EEB0E0E51EA02071D
:1025100018BF46F0010616EB0E7655F1000254F195
:10252000000103D5BDE88901BDE80088BDE8890147
:10253000BDE80048B619524141EB0101A3F1010386
:10254000704780807F7E7D7C7B7A79787776767520
:102550007473727171706F6E6E6D6C6C6B6A6A6998
:102560006868676666656464636362616160605F32
:102570005F5E5E5D5D5C5C5B5B5A5A5959585857AB
:102580005756565555555454535352525251515013
:1025900050504F4F4F4E4E4D4D4D4C4C4C4B4B4B66
:1025A0004A4A4A49494948484847474747464646AC
:1025B00045454544444444434343434242424241E7
:1025C0004141000046EA0646A3F570534FEA16461D
:1025D00046EA42564FEAD22242EA415210B54FEA49
:1025E000D121A3F1010300F02FF820F0004000F109
:1025F000020C00F0004701EB00501146BCF5006FE3
:1026000040EA070000D210BDBAF1000F0AD01CB595
:1026100003B44FF004004FF004014FF000000FBC72
:10262000BDE810404FF00001BBF1010FB9BF0448F5
:102630004FF0FF310348002140EA070010BD00BF02
:10264000FFFFEF7F0000F07F002B9C4630D4770027
:102650002BD01CB54FEA370703B44FF010004FF0F2
:102660001001BAF1000F06D0BCF1000FDCBF40F042
:10267000080040F008014FF000000FBCBDE810401A
:102680000BF1010BBBF1010F08BF5FEA170722BF77
:1026900012F1010211F101014FF0004143F1000379
:1026A00000F0004043EA00007047F9D35708D0E734
:1026B00046EA064613F1400F4FEA16461FDD13F1B6
:1026C000200FDFBF16430A46002120335B42BED0F5
:1026D000C3F1200746EA064602FA07F74FEA164614
:1026E00046EA0706C3F1200722FA03F201FA07F7C8
:1026F00021FA03F14FF0000342EA0702A7E746EA96
:10270000020646EA06464FEA164646EA0106BCBFFE
:1027100046EA0646360C4FF000034FF000024FF039
:10272000000194E72DE9804C9A46934670B491E8F5
:10273000380007C831EA400C48BF34EA430C03D5DF
:10274000FFF7A3FDFFF780FFF0BCBDE8008C2DE98B
:10275000804C9A46934670B491E8380007C831EA35
:10276000400C48BF34EA430C03D5FFF78EFDFFF75A
:1027700029FFF0BCBDE8008C2DE9804C9A469346B9
:1027800070B491E8380007C810F0804F08BF13F00C
:10279000804F03D100F01AF8FFF756FFF0BCBDE8F8
:1027A000008C2DE9804C9A46934670B491E838002D
:1027B00007C810F0804F08BF13F0804F03D100F01E
:1027C00005F8FFF7FFFEF0BCBDE8008C20F07F4766
:1027D00080EA030023F07F4C07EB0C03A3F57C5346
:1027E00000F00040A3F1FE0392F0000F00F0B38070
:1027F00095F0000F00F077802DE901494FEA114074
:102800004FEA144621EA004800FB06FC24EA06478A
:1028100008FB06F607FB08F800FB07F718EB06486D
:102820004CEB164C4FEA124B18EB07484FEA154693
:102830004CEB174022EA0B4E0BFB06FC25EA064741
:102840000EFB06F607FB0EFE0BFB07F71EEB064E14
:102850004CEB164C4FF000061EEB074E4CEB174BA3
:1028600018EB0B0840F1000018EB0E0B58EB0008BA
:1028700040F100008F1A4FF000013CBFC943661BB6
:1028800014BFB5EB040C00213CBFC943F61B4FEA53
:1028900017444EEA8E0E27EA04454FEA1C4704FB14
:1028A00007622CEA074C05FB07F70CFB05F604FB57
:1028B0000CFC16EB074642EB174216EB0C4642EBBC
:1028C0001C421BEB060658EB0202414146EA9E06FB
:1028D00001D5BDE80189B619524141EB0101A3F1CF
:1028E0000103BDE801894FEA14454FEA114724EA84
:1028F000054621EA074C05FB07F406FB07F70CFB2E
:1029000006F105FB0CFC11EB074144EB17444FEAC1
:10291000124711EB0C4144EB1C4422EA074C05FB27
:1029200007F206FB07F70CFB06F605FB0CFC16EBA3
:10293000074642EB174216EB0C4642EB1C456A1861
:1029400054F1000148BF7047B619524141EB0101F3
:10295000A3F10103704795F0000F37D04FEA114201
:102960004FEA144721EA024624EA074C02FB07F12A
:1029700006FB07F70CFB06F402FB0CFC14EB074408
:1029800041EB17414FEA154714EB0C4441EB1C4156
:1029900025EA074C02FB07F506FB07F70CFB06F6DA
:1029A00002FB0CFC16EB074645EB174516EB0C46F5
:1029B00045EB1C42121951F1000148BF7047B6198E
:1029C000524141EB0101A3F1010370474FEA144565
:1029D0004FEA114724EA054621EA074C05FB07F1B7
:1029E00006FB07F70CFB06F24FF0000605FB0CFC9C
:1029F00012EB074241EB174112EB0C4251EB1C4129
:102A000048BF7047921841EB0101A3F101037047E1
:102A100000BFFEE770472DE9F04102460025002681
:102A2000002000230024002791F803C00CF00F05BC
:102A300091F803C00CF0100CBCF1000F03D091F81A
:102A400002C04CEA050591F800C0BCF1000F31D07E
:102A5000146800202BE04FF0010C0CFA00F3B1F8E1
:102A600000C00CEA03069E4220D183004FF00F0CF9
:102A70000CFA03F7BC4305FA03FC4CEA040491F892
:102A800003C0BCF1280F06D14FF0010C0CFA00FC7A
:102A9000C2F814C00AE091F803C0BCF1480F05D198
:102AA0004FF0010C0CFA00FCC2F810C0401C0828C2
:102AB000D1D31460B1F800C0BCF1FF0F34DD54680D
:102AC00000202EE000F1080C4FF0010808FA0CF38A
:102AD000B1F800C00CEA03069E4221D183004FF0FA
:102AE0000F0C0CFA03F7BC4305FA03FC4CEA040490
:102AF00091F803C0BCF1280F05D100F1080C08FAC9
:102B00000CF8C2F8148091F803C0BCF1480F07D14B
:102B100000F1080C4FF0010808FA0CF8C2F8108018
:102B2000401C0828CED35460BDE8F08100BFFEE70A
:102B30002DE9F14FC0B001AA0021409801F020F921
:102B40000546002D58D02878002855D130A000F037
:102B5000FDF935A1284601F077F9009001F0DCF984
:102B6000804633A1284601F06FF9009001F0D4F9B6
:102B7000814631A1284601F067F9009001F0CCF9B7
:102B8000824641462EA000F0E1F949462FA000F010
:102B9000DDF9514630A000F0D9F933A1284601F003
:102BA00053F9009001F0E0F8834659462FA000F059
:102BB000CDF931A1284601F047F9009001F0A0F9C4
:102BC00006460F4632463B462DA000F0BFF930A125
:102BD000284601F039F9044634B12078052803D19C
:102BE0002DA000F0B3F910E07CB1207805280CD1BD
:102BF00029A000F0ABF908E018AA2BA0019900F079
:102C0000A5F9012041B0BDE8F08F0020FAE70000EF
:102C1000726F6F7420666F726D617420636F727271
:102C20006563740D0A0000006E616D6500000000B0
:102C3000626C6F6700000000776563686174000074
:102C40006E616D653A2025730D0A0000626C6F6736
:102C50003A2025730D0A00007765636861743A2095
:102C600025730D0A00000000616765006167653A21
:102C70002025640D0A00000073636F726500000078
:102C800073636F72653A20252E31660D0A000000CD
:102C900073746174757300007374617475733A2092
:102CA000747275650D0A0000726F6F7420666F7222
:102CB0006D6174206572726F723A25642D25730DF3
:102CC0000A0000002DE9F04FBFB0DFF8B4A06A465B
:102CD0000021504601F054F80546002D47D02878D1
:102CE000002844D127A000F031F92CA1284601F09A
:102CF000ABF8834601F010F90646314629A000F0F2
:102D000025F92CA1284601F09FF80446002C27D075
:102D10002078002824D129A1204601F095F8834687
:102D200001F0FAF8074628A1204601F08DF8834605
:102D300001F0F2F8804627A1204601F085F883468D
:102D400001F0EAF88146394624A000F0FFF8414638
:102D500026A000F0FBF8494628A000F0F7F80DE0A7
:102D600029A000F0F3F801203FB0BDE8F08F17AACA
:102D70002BA0009900F0EAF80120F5E70020F3E726
:102D800044550008726F6F7420666F726D61742015
:102D9000636F72726563740D0A000000737563637C
:102DA00065737300737563636573733A25730D0AF6
:102DB00000000000726573756C74000074696D65C5
:102DC0007374616D700000006461746574696D6591
:102DD0005F3100007765656B5F31000074696D6578
:102DE0007374616D703A25730D0A00006461746537
:102DF00074696D655F313A25730D0A007765656BFF
:102E00005F313A25730D0A00726575736C74206624
:102E10006F726D6174206572726F720D0A0000002E
:102E2000726F6F7420666F726D6174206572726F5D
:102E3000723A25642D25730D0A0000002DE9F04F2C
:102E4000C1B0DFF8A09002AA0021484600F098FF28
:102E50000646002E3BD03078002838D122A000F062
:102E600075F827A1304600F0EFFF019001F054F80B
:102E7000824625A1304600F0E7FF0446002C2FD003
:102E8000207801282CD100251BE02946204600F09F
:102E9000C5FE83461FA1584600F0D6FF019001F001
:102EA0003BF807461DA1584600F0CEFF019001F007
:102EB00033F8804643463A4629461AA000F046F8C1
:102EC0006D1C204600F0DEFEA842DED808E019AAFC
:102ED00017A0029900F03AF8012041B0BDE8F08F48
:102EE0000020FAE7B0540008726F6F7420666F72AA
:102EF0006D617420636F72726563740D0A00000067
:102F000074696D65000000006C6F636174696F6EB9
:102F1000000000006E616D65000000006164647275
:102F20006573730025643A2025732D25730D0A00FF
:102F3000726F6F7420666F726D6174206572726F4C
:102F4000723A25642D25730D0A0000000FB410B5E8
:102F5000CCB002AC4FA801904FF4947102A8019B31
:102F60004E9AFDF707FA002001900BE000BF4021C8
:102F7000084800F0D0F90028F9D014F8011B0548E2
:102F800000F097FA20780028F0D14CB010BC5DF822
:102F900014FB00000038014000BFFEE7704700004E
:102FA00070B5002100230F22C47804B3154C2468A7
:102FB00004F4E064C4F5E064210AC1F10403CA40EA
:102FC000447804FA03F184781440214309010E4C3B
:102FD0000678A155047804F01F050124AC4005785B
:102FE0006D11AD0005F1E025C5F8004109E0047858
:102FF00004F01F050124AC40044D0678761145F815
:10300000264070BD0CED00E000E400E080E100E04F
:1030100029B1064A92690243044B9A6104E0034ACB
:1030200092698243014B9A61704700000010024090
:1030300030B500210022002400232D4D6D6805F0DD
:103040000C0121B1042905D0082923D105E0294D1F
:10305000056022E0274D05601FE0254D6D6805F4F1
:103060007012234D6D6805F48034022505EB924201
:103070001CB9214D554305600BE01D4D6D6805F4ED
:1030800000351DB11C4D5543056002E0194D5543F7
:10309000056002E0174D056000BF00BF144D6D686C
:1030A00005F0F0010909154D6B5C0568DD404560D0
:1030B0000F4D6D6805F4E061090A104D6B5C4568C1
:1030C000DD4085600A4D6D6805F46051C90A0B4DFD
:1030D0006B5C4568DD40C560054D6D6805F4404199
:1030E000890B074D6B5CC568B5FBF3F5056130BD19
:1030F0000010024000127A0000093D000800002084
:1031000018000020704710B500F002F810BD000054
:103110000CB50020019000903348006840F48030E6
:103120003149086000BF3048006800F4003000906A
:103130000198401C0190009818B90198B0F5A06F53
:10314000F1D12948006800F4003010B1012000904E
:1031500001E0002000900098012843D12348006836
:1031600040F01000214908600846006820F0030084
:1031700008600846006840F0020008601A4840688D
:10318000194948600846406848600846406840F46D
:10319000806048600846406820F47C10486008461B
:1031A000406840F4E81048600846006840F08070CD
:1031B000086000BF0C48006800F000700028F9D0DB
:1031C0000948406820F00300074948600846406805
:1031D00040F00200486000BF0348406800F00C0067
:1031E0000828F9D10CBD0000001002400020024068
:1031F000042808D14FF0E021096941F004014FF0A3
:10320000E022116107E04FF0E021096921F004019B
:103210004FF0E0221161704710B51348006840F08C
:1032200001001149086008464068104908400E49ED
:103230004860084600680E4908400B490860084687
:10324000006820F4802008600846406820F4FE00F2
:1032500048604FF41F008860FFF755FF4FF0006093
:103260000449086010BD0000001002400000FFF893
:10327000FFFFF6FE08ED00E010B540F225511448BE
:1032800000F056F8E8B1124800F00EF9C4B2114847
:103290001149098844540D2C0ED101200F490870A2
:1032A0000C48FFF745FC4FF480610A48FDF757FAD8
:1032B00000200949088004E007480088401C0649AE
:1032C000088040F22551024800F00AF810BD0000C5
:1032D00000380140540000200200002000000020BF
:1032E00010B50022002340F66A14A14200D100BFAD
:1032F0000A1201249440A3B2DC43048010BD21B122
:10330000828942F40052828104E082894DF6FF7383
:103310001A408281704702460020B1F5007F00D13B
:1033200000BF13880B400BB1012000E00020704764
:1033300070B50246002400230025002040F66A16DE
:10334000B14200D100BFC1F3421501F01F030126B5
:1033500006FA03F3012D02D19689334006E0022DCF
:1033600002D1168A334001E0968A33400C120126BE
:1033700006FA04F41688344013B10CB1012000E0C1
:10338000002070BDF0B50346002400260025002073
:1033900040F66A17B94200D100BF1846C1F3421483
:1033A00001F01F06012707FA06F5012C01D10C30A8
:1033B00004E0022C01D1103000E014301AB107688B
:1033C0002F43076002E00768AF430760F0BD0000CD
:1033D0002DE9F04786B005460E460024A24600BF00
:1033E000A1460027B08900B100BF2F462C8A4CF6B9
:1033F000FF700440F08804432C82AC894EF6F31031
:103400000440B08831890843718908430443AC8182
:10341000AC8A4FF6FF400440B0890443AC8201A857
:10342000FFF706FE1F48874202D1DDF810A001E039
:10343000DDF80CA0A88900F4004040B10AEBCA00F6
:1034400000EB0A1031684900B0FBF1F807E00AEB25
:10345000CA0000EB0A1031688900B0FBF1F8642063
:10346000B8FBF0F004012009642101FB1089A88950
:1034700000F4004040B1322000EBC900B0FBF1F095
:1034800000F00700044308E0322000EB091064213B
:10349000B0FBF1F000F00F0004432C8106B0BDE852
:1034A000F08700000038014001468888C0F308001A
:1034B0007047C1F308028280704700BFFEE730B456
:1034C0007446641E2578641CAB4200D21D46635DC1
:1034D0005B00E31830BC1847490050EAC12018BF10
:1034E00004204A0D18BF40F0010040F2FF72B2EB19
:1034F000515F08BF40F00200012808BF0520704757
:10350000012249005205D14201D1002801D00020FA
:103510007047012070470000002800D001200143BF
:10352000480002494008081AC00F70470000F07FA9
:1035300040F2013200204FF0E04101F0FBBE0000FC
:10354000024A0020110701F0F5BE000001FDFFFF57
:1035500010B50446D1E9000100F002F8206010BD6A
:10356000F8B504460D466A4600F02AF900987E3008
:10357000009000281EDC002213462046294601F058
:10358000A1FD17D0002140F608004FF000000646CC
:103590002046294601F050FD044640F6080006EAA0
:1035A00000014FF0000034F0004004BF0220FEF79D
:1035B000B7FB29E00098FF2828DB002108464FF0E0
:1035C000000000F44006002213462046294601F080
:1035D0003FFE8CBF002501250220FEF7A1FB4FF026
:1035E000FF4446B1002D0CBF4FF400004FF48000A3
:1035F000B04218BF084C042108464FF00000002DCF
:1036000004BF84F00040F8BD2046F8BD204629469E
:10361000BDE8F84001F010BDFFFF7F7F10B5044604
:103620000A46D4E90003194600F02CFDC4E9000164
:1036300010BD30380A2801D20120704700207047A1
:1036400070B50D4604998C0099008918AA001018CD
:103650002246FDF752F870BD0A680C30824204D150
:103660004868824201D1012070470020704710B5A0
:10367000034619780020752901D0FCF7A1FF01222B
:10368000995C00010C46303C092C02D840183038B7
:103690000CE00C46613C192C02D84018573805E064
:1036A0000C46413C192C05D840183738521C042AC6
:1036B000E6DD10BD0020C04310BD000010B56FF066
:1036C0000400FFF795FD0A4800680A49B0FBF1F0D5
:1036D000094908700846007800EB4001C1EBC010B2
:1036E0004FF6FF7101EAC0000449088010BD0000D8
:1036F0001C00002000127A000400002006000020B8
:103700000FB4F0B5D5B0002000255290ED435A9883
:103710000C462AAE5395002838D05DABA021304628
:103720005C9AFCF727FE002750A8C771002C24D014
:103730002046283001F08EFAA1695391E569616A4B
:10374000529100280DD0017800290AD0E16A14298D
:1037500013D800902AAB10A2A02102A8FCF724FEE7
:1037600008E06069801C08D02AAB0FA2A02102A843
:10377000FCF71AFE28A8C77102AE10A000900196AF
:103780002A46529B53995A9800F0E5FB55B0F0BC7D
:1037900008BC04B0184700002573206E65617220D4
:1037A00027257327000000002573206E65617220B5
:1037B000656E64206F662066696C65002573000085
:1037C00010B5144600222260114A21F000439342B2
:1037D000A8BF10BD53EA000208BF10BDB3F5801F9B
:1037E000A8BF226807DA362201F0A4FD6FF0350287
:1037F00021F000432260DFF81CC06FF31E510CEB78
:1038000023531A4441F0FF5141F00051226010BD92
:103810000000F07F02FCFFFF70B5044688184E4A96
:1038200080180246154646E023785B1965782D021C
:10383000EB18A5782D04EB18E5782D06EE18237902
:103840009A1863791B029A18A3791B049A18E379D2
:103850001B069B18227A1018627A12021018A27A9C
:1038600012041018E27A12061518701B1C262A463C
:10387000F24142401046ED181B1A1A26F2415A40F6
:1038800013464019ED1A1826F2416A4015461B18D6
:10389000401B1026F2414240EE1810461B1A0D251F
:1038A000EA4153408519F21A18461C26F04150404F
:1038B0005A190C390C340C29B6D80B00FFF7FFFD50
:1038C0000D4A2724211E1C191613110E0B0829005E
:1038D000E17A09060818A17A09040818617A090230
:1038E0000818217A0818E17909068A18A1790904CB
:1038F0008A18617909028A1821798A18E1780906FB
:103900004D19A17809044D19617809024D192178E2
:103910004D1912231146D9415040411A152308462A
:103920004D40D841281A07240346E3414240D21AA9
:1039300010241346E3415140C91A1C240B46484049
:10394000E341C01A42401223D841101A41400822D4
:10395000D041081A70BD0000EFBEADDE10B50446C0
:1039600000F004F8606800F033FB10BD70B5054648
:103970000C35046908E06668A068241F00F0A3F90C
:10398000204600F025FB3446AC42F4D170BDF8B5BA
:103990000446406800F01CFBA1680126491C304623
:1039A0008840A1600090C00000F01AFB6060002811
:1039B00003D0002025460C3509E00020C043F8BDA7
:1039C000C10062680B1DD5506268401C5550227AB8
:1039D000314691408142F3D822696D602D600DE03F
:1039E000171F56683868009901F0F0FC6068C9003C
:1039F00041183A1D204600F0BDF83246AA42EFD1E8
:103A00000020F8BDFFB581B01F460E46FFF724FE2B
:103A1000002813D13468251F2868B84206D12846EB
:103A200014300399FCF7E4FE002804D07068A0422B
:103A300004D06468EFE7284605B0F0BD0020FBE73E
:103A400070B504460D460846FCF7E9FD0B490A68C7
:103A500001462846FFF7E0FE237A01219940491EDE
:103A600001406268C900511803462A462046FFF704
:103A7000C9FF002800D0C06870BD000050000020C1
:103A800070B50446002020600320A060402000F0B4
:103A9000A7FA6060002806D020460C302061002183
:103AA0000123E06009E00020C04370BDCA006568E2
:103AB000161DA8516568491CA850257A1A46AA40C7
:103AC0008A42F3D8002070BDFFB50546027A012472
:103AD00001682046904081B01F46814204D32846A9
:103AE000FFF755FF002840D10298FCF798FD2049C8
:103AF0000A6801460298FFF78FFE0646287A334689
:103B00008440641E34406868E1004018009001461B
:103B10002846029AFFF776FF040004D0E06800F020
:103B2000D2F8E7601EE00298FCF779FD1521C84243
:103B30001BD2153000F054FA040016D0266003980A
:103B40002061204614300299FCF745FD201DA0603D
:103B5000E7606060221D2846009900F00BF8286895
:103B6000401C2860002005B0F0BD0020C043FAE7EB
:103B70005000002070B515460C460646FFF76CFD58
:103B8000002806D0304629460C3000F0D6FD65608E
:103B900003E02946206800F0D0FD256070BD70B5B7
:103BA000182000F01DFA04000ED00120207000251E
:103BB000E56060600820A060202000F011FA20611C
:103BC000002802D02046656170BD204600F000FA52
:103BD000002070BD70B5104E0D0005D0002817D024
:103BE0000178012914D101E0304670BDA8420FD000
:103BF00001220446114600F01FF8002808D0E168B1
:103C0000206989004550E068401CE060002070BDDC
:103C1000284600F04CF8E7E7FFFFFFFF002805D03B
:103C20000278012A02D1C2688A4201D80020704776
:103C30000069890040587047F8B50546C0681746C6
:103C40004318AA682869934219D9064654185000A7
:103C5000844200D80446A00000F0C2F900280ED02B
:103C6000AC602861002F0BD0E96800230091324638
:103C70001946FFF7E5FC304600F0AAF92869F8BDBF
:103C80003046F8BD002802D00178012901D000207B
:103C90007047C068704710B5002807D041684A1CBB
:103CA00004D0491E416001D100F019F810BD10B5D3
:103CB000002807D041684A1C04D0491E416001D148
:103CC00000F00DF810BD10B5002807D041684A1C5F
:103CD00004D0491E416001D100F001F810BD70B55B
:103CE00000280AD00178002908D001290BD0022928
:103CF0001AD0032915D0042913D070BD044608300A
:103D0000FFF72CFE0CE00446002504E0A900405813
:103D1000FFF7CDFF6D1CE068A8422069F6D805E0EA
:103D2000204600F055F970BD0446806800F050F957
:103D3000F6E700000048704738000020002804D053
:103D400041684A1C01D0491C4160704770B5044667
:103D50000D46102000F044F9002804D00321017022
:103D60000121021D32C270BD002802D00178032952
:103D700002D00020014670478268C1681046704733
:103D800070B50E46044692B0154612A1104600F0DA
:103D9000D1F8002C0CD00020119010AA10491094DA
:103DA000684600F0F3F9002808D0002012B070BD7A
:103DB0000CA200212846FFF7A3FCF6E72A4631466D
:103DC000684600F02DFD0446684600F0B5F920462F
:103DD000ECE700003C737472696E673E00000000FF
:103DE000C54D000877726F6E6720617267756D65EB
:103DF0006E747300004870474000002010B5242006
:103E000000F0EEF8040004D00E480068002802D04C
:103E100004E0002010BD002000F024F800202070F5
:103E20000120606020460830FFF72AFE002803D0FA
:103E3000204600F0CDF8ECE70020E061206220464B
:103E400010BD00005000002010B5002904D000284B
:103E500002D00278002A01D0002010BD0830FFF700
:103E6000EFFD10BD38B5084C216800290AD10028A3
:103E700007D1684600F07EFE0098002801D101209D
:103E80000090206038BD00005000002070B50E4D3D
:103E9000140007D0002912D0002810D00278002A80
:103EA0000DD101E0284670BDA04208D0C269531C64
:103EB000C36123460830FFF707FE0028F3D02046F1
:103EC000FFF7F5FEEEE70000FFFFFFFF70B50446C9
:103ED0000D46FFF721FB002805D120462946FFF7B4
:103EE0000FFB002801D0002070BD102000F078F8F2
:103EF0000028F9D0042101700121021D32C270BDD9
:103F0000002802D00178042902D000200146704721
:103F10008268C16810467047002802D001780229E3
:103F200001D000207047806870470000004870474B
:103F30003000002010B500280AD000225C231A545B
:103F4000531E036043608260002902D000F00CF829
:103F500010BD027310BD1CB505AC0194049C009407
:103F600000F020F81CBD000070B504000D4616D00E
:103F7000002D14D00846FCF752FB22460C32502884
:103F800002D22946104608E006464C3E04A11046DF
:103F9000FCF721FB2046A9190F30FCF71CFB70BD74
:103FA0002E2E2E0070B50400059D04980FD05C26BF
:103FB000365D002E0BD10EC4024620462B46A021B2
:103FC00050300C3CFCF7D6F90020E034E07670BDB0
:103FD000002802D00149496808477047480000207E
:103FE000002802D0014909680847704748000020AE
:103FF00010B5012200F0C7FE10BD70B506460C4694
:10400000481CFFF7EDFF050007D022463146FCF7BC
:104010002FFB00202855284670BD002070BD0000F1
:10402000FEB50F460646FCF74BF9002101900160F2
:104030006946306800F0D2FE04460D4603CE4018B3
:104040000099884201D0FCF7BBFA00220B4B2046B6
:10405000294601F037F806D00022094B20462946B0
:1040600001F030F803D101980068022802D030C76F
:104070000020FEBD0020C043FEBD00000000F07F18
:104080000000F0FF2DE9F04106460C4640F2FF75B6
:10409000174635EA14502BD000221346304601F063
:1040A00011F825D03A463046214601F043F906463C
:1040B0000C4635EA145010D000221346304601F069
:1040C00001F815D10220FDF72BFEFFF739FA0A4659
:1040D000214662F31E01BDE8F0810220FDF720FEBB
:1040E000FFF726FA0A46214662F31E01BDE8F08179
:1040F00030462146BDE8F08108B501214020FEF799
:1041000087FF01210820FEF783FF10208DF80300B0
:104110002020ADF8000003208DF802006946044815
:10412000FEF779FC69460348FEF775FC08BD000000
:1041300000180140000C014010B50446406BC11F3F
:10414000F93902D1204600F005F82046283000F069
:1041500058FD10BD10B50446806BFFF739FF0020F5
:10416000A063E06310BD10B500F076FD10BD70B522
:10417000054600F071FD0446401C05D0A01C03D08C
:104180002146284600F01AF8204670BD10B50446B6
:1041900006C400202070A060E06001216061216100
:1041A000E06120462030083C00F037FD0100024865
:1041B00001D16063002010BDFFFFFFFF10B5C9B241
:1041C000283000F0DAFC10BDF8B5054628300F465F
:1041D000009000F011FD686BC11FF93902D128462B
:1041E000FFF7B8FF39462846FFF7BDFF04462028F1
:1041F000F8D0092CF6D00A2CF4D00D2CF2D0601C8B
:1042000057D0384EA01C59D021462846FFF7D6FF7C
:104210007B2C3CD07D2C3AD05B2C38D05D2C36D01A
:104220003A2C34D02C2C32D0222C32D020463038AC
:10423000092833D92D2C31D01138192802D9613CE5
:10424000192C3ED839462846FFF791FF01464138E0
:104250001928F7D9084661381928F3D9284600F0FB
:1042600059FA009800F0F6FC04461FA1FCF7C0FACA
:10427000002819D01EA12046FCF7BAFA002816D053
:104280001DA12046FCF7B4FA002814D016E06C6398
:1042900015E03946284600F0F9F810E03A46214684
:1042A000284600F02DF80AE0FF20043001E0FF204E
:1042B0000530686303E0FF200630FAE76E63686B41
:1042C000F8BD2C46083408E02846FFF777FF286938
:1042D000401C2861686A401C68622869015D0029E9
:1042E000F2D1EBE7FFFFFFFF74727565000000007D
:1042F00066616C73650000006E756C6C00000000F8
:10430000F7B50026F64384B0044646632D2903D151
:104310000699FFF72CFF014630292FD00846303888
:1043200009286FD820460699FFF721FF014630384B
:104330000928F7D9254628352E2937D045294FD0C9
:1043400065294DD0204600F0E5F9284600F082FCB2
:104350000546FBF7B5FF0021074601600A2202A9C6
:104360002846FCF72BF90246386802280FD0E06A8D
:10437000029B4019984214D0FCF722F92046069976
:10438000FFF7F5FE0146303809283BD9D2E700296E
:1043900001DA2DA200E033A221460698FFF7B0F91A
:1043A00033E0FF200230A26360634AE020460699B2
:1043B000FFF7D9FE014630380A28204602D300F024
:1043C000BDFC22E0FFF7FAFE20460699FFF7CFFE7C
:1043D000014630380928F7D9452901D065291FD170
:1043E00020460699FFF7C3FE01462B2801D02D2950
:1043F00004D120460699FFF7BAFE01460846303838
:104400000A2805D3204600F085F9304607B0F0BDF4
:1044100020460699FFF7ABFE014630380928F7D948
:10442000204600F077F969462846FFF7F9FD002895
:1044300001D010A2B0E7FF2003306063019900981B
:10444000A0630020E163E1E7746F6F206269672079
:104450006E6567617469766520696E7465676572FB
:1044600000000000746F6F2062696720696E7465D8
:10447000676572007265616C206E756D6265722091
:104480006F766572666C6F7700000000F3B583B0DD
:10449000002605468663701E68634DE0A01C0FD0A1
:1044A000601C0ED01F2C10D82146284600F032F98F
:1044B0000A2C234607D069A229460498FFF720F961
:1044C00094E06CA21AE071A2F6E75C2C34D1284685
:1044D0000499FFF74CFE752815D022282CD05C28B3
:1044E0002AD02F2828D0622826D0662824D06E28EB
:1044F00022D0722820D074281ED069A229460498A0
:10450000FFF7FEF872E028460499FFF730FE0446F4
:104510000027204630380A2805D31138062802D350
:10452000613C062CE9D228460499FFF720FE7F1C47
:104530000446042FEDDB04E028460499FFF717FE3C
:104540000446222CAAD1E86A401CFFF749FD070067
:104550004CD028462830AF6300F07CFB441C72E04E
:104560005C286DD16078641C75280BD0662860D0FB
:1045700055DC222864D02F2862D05C2860D06228C5
:1045800053D154E02046FFF772F80190002802DA78
:10459000631E47A290E71B21C902411A4C48641DC3
:1045A00081422BD820785C2825D16078752822D1CB
:1045B000641C2046FFF75BF80028E9DB37218902FD
:1045C000421A4349641D8A4209D80199414A890225
:1045D00089180818092189024018019015E00090F7
:1045E0003DA22946019B0498FFF78AF82846FFF769
:1045F000B1FD05B0F0BD40A2019B5DE737210198F8
:104600008902411A32488142F5D902AA39460198F5
:1046100000F0A8FC002808D102983F1813E06E288B
:1046200009D0722809D0742809D0FBF7C9FF0820E7
:1046300006E00C2004E00A2002E00D2000E0092042
:104640003870641C7F1C2078222889D13E70A86BAA
:10465000381AE863FF2001306863CAE7636F6E743D
:10466000726F6C2063686172616374657220307868
:10467000257800007072656D617475726520656ED5
:1046800064206F6620696E7075740000756E6578C1
:10469000706563746564206E65776C696E65000093
:1046A000696E76616C696420657363617065000092
:1046B000696E76616C696420556E69636F6465200C
:1046C0006573636170652027252E3673270000000F
:1046D000FF0300000000A0FC696E76616C69642035
:1046E000556E69636F646520275C75253034585CAE
:1046F0007525303458270000696E76616C69642036
:10470000556E69636F646520275C752530345827C2
:104710000000000070B505460C46481C0CD0A01CDB
:104720000AD0284600F00AFB2846283000F086FA16
:10473000844201D0FBF744FF70BD486002680A6004
:104740000268516001607047FEF7B8FFFFF7D4FCC4
:104750004FF4E13000F050FBFEF7B4FAFEF76EFBC9
:104760000348016803A0FEF7F1FB00BFFEE700006D
:104770001C00002053797374656D436F7265436C40
:104780006F636B3A2025640D0A000000F7B51746E9
:104790000446FFF704FA06002ED039462046FFF7FC
:1047A00013FD606B5D2830D02BE03A46204601991E
:1047B00000F040F905001BD0FFF7C0FA0146304673
:1047C000FFF708FA0028284602D0FFF764FA0FE046
:1047D000FFF761FA39462046FFF7F6FC606B2C289C
:1047E0000BD05D2811D00AA221463846FEF788FF7B
:1047F0003046FFF750FA0020FEBD39462046FFF74D
:10480000E3FC606B0028D0D1EDE73046FEBD000030
:10481000275D27206578706563746564000000007B
:10482000F8B50F46154604461146FFF7CDFC78074C
:104830000AD4606B5B2807D07B2805D012A22146E2
:104840002846FEF75DFF17E02A463946204600F06D
:10485000F1F8060010D0B80710D429462046FFF71B
:10486000B3FC606B002809D00CA221462846FEF755
:1048700047FF3046FFF70FFA0020F8BD002D01D0AA
:10488000606AA8603046F8BD275B27206F7220273A
:104890007B2720657870656374656400656E6420AD
:1048A0006F662066696C6520657870656374656401
:1048B00000000000F7B582B00446FFF79FFA06003B
:1048C00020D020460499FFF77FFC606B7D2873D0D1
:1048D000FF270137606BB84201D038A25EE00020AC
:1048E000A56BE26BA063E063002D0AD0002128468F
:1048F000FBF7B4FE002807D02846FFF769FB35A276
:104900004CE0002005B0F0BD0398C0070AD029464E
:104910003046FFF799FA002804D02846FFF758FBE5
:1049200036A23BE020460499FFF74EFC606B3A2824
:1049300004D02846FFF74CFB36A22FE0204604990E
:10494000FFF742FC2046049A039900F073F80090A8
:1049500000280FD0FFF7F2F9024629463046FFF74C
:1049600095FA00280AD02846FFF732FB0098FFF797
:1049700092F917E02846FFF72BFB13E00098FFF7AA
:104980008AF92846FFF724FB20460499FFF71CFC10
:10499000606B2C280AD07D280ED022A221460498D4
:1049A000FEF7AEFE3046FFF776F9AAE720460499F7
:1049B000FFF70AFC8EE7FFE73046A3E773747269DE
:1049C0006E67206F7220277D27206578706563747D
:1049D000656400004E554C206279746520696E2034
:1049E0006F626A656374206B6579206E6F742073E3
:1049F0007570706F72746564000000006475706C8F
:104A00006963617465206F626A656374206B6579A0
:104A100000000000273A272065787065637465649C
:104A200000000000277D2720657870656374656449
:104A300000000000FEB50446406BFF23174602331A
:104A4000C21A98422BD009DC401C5AD05C2850D0A6
:104A50007C2849D0FF38022808D109E0012A37D044
:104A6000022A38D0032A39D0042A3AD026A220E0DC
:104A7000A66BE56BC80608D42A4600213046FBF732
:104A8000EDFD002801D025A213E029463046FFF7AE
:104A9000AFFA002833D00021A163E163FEBD08070F
:104AA00011D5204669462830FFF7BAFA002805D00C
:104AB00026A221463846FEF723FE20E00199009801
:104AC000FFF704FA19E0E16BA06BFFF73FF914E080
:104AD000E16BA06BF4E7FFF729FA0EE0FFF72AF984
:104AE0000BE0FFF787F908E03A462046FFF7E2FEC1
:104AF00003E03A462046FFF749FE0028CED10020C9
:104B0000FEBD18A2D5E70000756E65787065637408
:104B1000656420746F6B656E000000005C7530305A
:104B20003030206973206E6F7420616C6C6F776514
:104B30006420776974686F7574204A534F4E5F41E3
:104B40004C4C4F575F4E554C000000007265616C35
:104B5000206E756D626572206F766572666C6F7718
:104B600000000000696E76616C696420746F6B658B
:104B70006E00000001460020704713B5012201A914
:104B800000F002F81CBD0000F7B5044681684068DB
:104B900016460A1AB2421BD8164A914227D8B21CAE
:104BA00025D85242904222D84D00711C40188542AF
:104BB00000D805462846FFF713FA070017D006CCA1
:104BC000083CFBF755FD2068FFF702FA2760A56057
:104BD00003CC32464018083C0199FBF749FD606858
:104BE000801960602268002111540846FEBD002033
:104BF000C043FEBDFFFFFF7F0021416000680170E0
:104C0000704710B504460068002801D0FFF7E0F9AE
:104C10000020A0606060206010BD70B504460025D3
:104C200010206560A060FFF7DBF92060002802D04B
:104C30000570002070BD0020C04370BD4168002990
:104C400006D0491E02684160505C002353547047EF
:104C50000020704700687047F3B50446406981B092
:104C600000281FD12046083021690090085C0028E8
:104C700030D12168606888470546401C0FD02572F6
:104C800000202061284680387F2821D8E8B200F033
:104C900007F9060039D0022E05DAFBF791FC002057
:104CA000C0436061FEBD012705E021686068884758
:104CB000E11908727F1CB742F7DB002231460098E9
:104CC00000F00CF9002820D00020A119087201E0A2
:104CD0000020607220690099421C2261455C606A74
:104CE000401C60620A2D09D0284600F0D9F800283F
:104CF00002D0E069401CE0612846FEBDA069401C6E
:104D0000A061E06920620020F5E70126F6436661B4
:104D10002B4603A221460298FEF7F2FC3046FEBD68
:104D2000756E61626C6520746F206465636F646585
:104D300020627974652030782578000070B50446CB
:104D40000D46481C1ED0A81C1CD0606A401E606224
:104D50000A2D12D0E8B200F0A3F8002802D0E069D2
:104D6000401EE0612069002805D0401E2061083403
:104D7000005DA84206D0FBF723FCA069401EA0619D
:104D8000206AEEE770BD70B515460E46002811D0BA
:104D9000002D01D0044603E0FFF72FF9040009D0ED
:104DA0001020FFF71DF9002805D002210170012114
:104DB000021D52C270BD002D02D12046FFF708F936
:104DC000002070BD036842680146985C002802D04C
:104DD000521C4A6070470020C043704700B583B042
:104DE0000A460021CDE9001101466846FCF7B2F9F8
:104DF000DDE9000103B000BD10B586B00446012115
:104E00008803FEF705F901210420FEF701F94FF4AC
:104E10000070ADF8140003208DF8160018208DF8EE
:104E2000170005A91C48FDF7F6FD4FF48060ADF8AA
:104E3000140004208DF8170005A91748FDF7EBFDB5
:104E400025208DF8000003208DF801008DF8020068
:104E500001208DF803006846FEF7A2F801940020B7
:104E6000ADF80800ADF80A00ADF80C00ADF8100080
:104E70000C20ADF80E0001A90848FEF7A9FA01229E
:104E800040F225510548FEF77DFA01210348FEF75F
:104E900036FA06B010BD000000080140003801409D
:104EA000802801D201207047014680393F2913D95B
:104EB000C02811D0C1280FD042391D2901D80220A5
:104EC00070470146E0390F2901D803207047F038B8
:104ED000042801D8042070470020704770B503787B
:104EE000022904D0032905D0042906D02EE0DB06D0
:104EF000DB0E04E01B071B0F01E05B075B0F0124C7
:104F0000055D2E46803E402E20D2AD069B01AD0EA3
:104F10005B19641C8C42F3D31048834216DC1B20BF
:104F2000C0020F4C181AA04210D9022904D003293C
:104F300005D0042906D00BE0802B07DB08E0012018
:104F4000C00201E001200004834201DA002070BDAC
:104F5000002A00D01360012070BD0000FFFF100088
:104F6000FF07000070B50025ED43002834DB8028E2
:104F700002DA087001202CE083069B0E01248033A6
:104F8000E402DBB2A04206DA4005C00EC030087071
:104F90004B7002201DE00405A40E01268034360467
:104FA000E4B2B04207DA0004000FE03008704C7041
:104FB0008B7003200DE0094EB0420DDCC5026D0F71
:104FC000F0358003800E0D70803048708C70CB708F
:104FD00004201060002070BD284670BDFFFF100047
:104FE00010B500290AD00878002807D00548784471
:104FF000FBF7FEFB002801D0002010BD02487844DA
:1050000010BD0000FE050000F605000010B50029E7
:105010000AD00878002807D005487844FBF7E8FB59
:10502000002801D0002010BD0248784410BD0000C7
:10503000EE050000E605000021F00042A2F16052FA
:10504000B2F5801F01F0004328BFD2F17F6C0BD96D
:105050005FEA001C43EAC20242EB507018BF70477F
:1050600028BF20F001007047B2F5801FBCBF184672
:1050700070474FEA410C1CF5001F02D2084600F0B1
:105080001DB970B500F096F800000089FFF7F6BF73
:105090004FF00040A0F580007047000002494FF03B
:1050A000000000F015B900BF0000F87F491058BF9C
:1050B000C1F140415B1058BFC3F140438B42EFF355
:1050C0000080704751EA030C17D41CF5801F58BFAD
:1050D000BCF5801F00F10680994218BF704708BFD9
:1050E0009042704707D711F5801F58BF13F5801FF6
:1050F00019D499427047894270471CF5801F08D522
:10510000BCF5801FF7D58B4218BF704708BF82429D
:1051100070474FF4001C1CEB410F38BF1CEB430FD2
:1051200001D28B42704770B500F044F892244900D8
:105130004FF000514FF08053FFF7B8BF51EA030C16
:1051400017D41CF5801F58BFBCF5801F00F10680E6
:10515000994218BF704708BF9042704707D711F5B2
:10516000801F58BF13F5801F19D499427047894298
:1051700070471CF5801F08D5BCF5801FF7D58B4202
:1051800018BF704708BF824270474FF4001C1CEBE9
:10519000410F38BF1CEB430F01D28B42704770B5F3
:1051A00000F008F8922449004FF000514FF080536E
:1051B000FFF77CBF0EF1020E2EF0030E5EF8046BBB
:1051C000364205D4012A43EB030515F5001F12D81A
:1051D000012841EB010C1CF5001F0CD80ED14FEA41
:1051E000D17C15F5001F0CEB4C0C0CF1020C08BF28
:1051F0004CEBD37C04E04FF0080C01E04FEAD37C89
:105200000CEB4C0526FA05F606F00706B6F1040C81
:1052100006D20EEB860CBDE870404CF0010C6047E6
:10522000DFE80CF0090B02024FF000414FF00000E4
:10523000A1F5002170BD19461046012851EB01046B
:1052400018BFD4F5001484BF002001F0004170BDE8
:1052500053EA010C17D41CF5801F58BFBCF5801F02
:1052600000F106808B4218BF704708BF824270472A
:1052700007D713F5801F58BF11F5801F19D48B4233
:1052800070479B4270471CF5801F08D5BCF5801FF6
:10529000F7D5994218BF704708BF904270474FF446
:1052A000001C1CEB430F38BF1CEB410F01D299428D
:1052B00070470FB40CBC03BCFFF771BFFF2141EA7C
:1052C000D050C00570474FF000007047FBF793BC0B
:1052D0000CF00F03092B08BF082000F05F800A2B99
:1052E0000BD0082B18BF704708BF1CF0400F0AD026
:1052F0004FF000004FF0000170471CF0400F18BF46
:105300004FF0004070471CF0100F08D020F07043A1
:1053100000F07F4242EAD3014FEA4370704700F049
:10532000604021F07F4242EA000201F07F4040EA03
:10533000727070474FF0FF0C4CF4E06C1CEA115394
:105340001CBF9CEA030C9445C2BFDA4201EB025138
:105350007047002B0DD0BCF1000F0FD0002A01F0D8
:105360000041A4BF41F0E04141F07F614FF00000F7
:10537000704701F000414FF00000704750EA0133E0
:105380004FF09B0C18BF4CF0806C7FF487AE7047D9
:10539000FCF71ABBFCF7CABCFCF758BE1CF4801F14
:1053A00011D01CF4E02F03D06FEACC3149007047D4
:1053B0004FF04050EFF3008222F0704242EA0002C8
:1053C00082F3008870474FF000007047B0FBF1F2A5
:1053D00002FB1101104670470400000800000000A5
:1053E00000000002000100001000000000000000AA
:1053F000000000003031323334353637383941421D
:105400004344454640305800303132333435363726
:10541000383961626364656640307800024000009C
:10542000000000A00000000005400000000000C8CF
:10543000000000000C4000000000409C0000000044
:10544000194000000020BCBE0000000034400000F5
:10545000BFC91B8E00000004B5400000504BCFD0E8
:105460006607E2CF010000006C4100003E8251AAB5
:10547000DFEEA73401000000D9420000DCB5A0E255
:105480003A301F97FFFFFFFFB4450000FD25A0C87D
:10549000E9A3C14FFFFFFFFFFF3F000000000080B6
:1054A00000000000FF3F000000000080000000003E
:1054B0007B226C6F636174696F6E223A5B7B226E34
:1054C000616D65223A2246617965222C226164640D
:1054D00072657373223A224265696A696E67227D3A
:1054E0002C7B226E616D65223A22416E6479222CFA
:1054F0002261646472657373223A225368616E6735
:10550000486169227D2C7B226E616D65223A224CB6
:10551000697361222C2261646472657373223A227A
:105520005368656E5A68656E227D5D2C2274696DC4
:1055300065223A22323031382D31312D3137227DFA
:10554000000000007B2273756363657373223A2247
:1055500031222C22726573756C74223A7B22746935
:105560006D657374616D70223A223135393236348B
:1055700030323439222C226461746574696D655F40
:1055800031223A22323032302D30362D3230203135
:10559000363A30343A3039222C227765656B5F31E8
:1055A000223A2236222C227765656B5F32223A221C
:1055B0005361747572646179227D7D00185700080B
:1055C00000000020540000006C0100086C57000827
:1055D000540000206414000088010008000000004E
:1055E0000000F07FFFFFFFFFFFFFEF7F1C000000C8
:1055F00043000000F8FFFFFF0C0000000E00000059
:105600000F0000002E000000100100004300000009
:10561000F8FFFFFF004040404040404040404141D3
:105620004141414040404040404040404040404077
:105630004040404040050202020202020202020211
:10564000020202020220202020202020202020020E
:10565000020202020202909090909090101010109E
:10566000101010101010101010101010101010103A
:1056700002020202020288888888888808080808CE
:10568000080808080808080808080808080808089A
:1056900002020202400000000000000000000000C2
:1056A00000000000000000000000000000000000FA
:1056B00000000000000000000000000000000000EA
:1056C00000000000000000000000000000000000DA
:1056D00000000000000000000000000000000000CA
:1056E00000000000000000000000000000000000BA
:1056F00000000000000000000000000000000000AA
:105700000000000000000000000000000000000099
:105710000000000000000000000000000000000089
:105720000000000001020304010203040607080947
:105730000204060800A24A04000000000000000065
:10574000010203040607080905000000FFFFFFFF30
:1057500006000000FFFFFFFF07000000FFFFFFFF44
:0C576000C9020008270300080000000038
:0400000508000131BD
:00000001FF
