:020000040800F2
:10000000B81400208102000851250008E7210008EB
:100010004D250008CB2000086F2A000800000000D2
:10002000000000000000000000000000B9260008E9
:10003000CF20000800000000970200089902000885
:100040009B0200089B0200089B0200089B0200081C
:100050009B0200089B0200089B0200089B0200080C
:100060009B0200089B0200089B0200089B020008FC
:100070009B0200089B0200089B0200089B020008EC
:100080009B0200089B0200089B0200089B020008DC
:100090009B0200089B0200089B0200089B020008CC
:1000A0009B0200089B0200089B0200089B020008BC
:1000B0009B0200089B0200089B0200089B020008AC
:1000C0009B0200089B0200089B0200089B0200089C
:1000D0009B0200082D2800089B0200089B020008D4
:1000E0009B0200089B0200089B0200089B0200087C
:1000F0009B0200089B0200089B0200089B0200086C
:100100009B0200089B0200089B0200089B0200085B
:100110009B0200089B0200089B0200089B0200084B
:100120009B0200089B0200089B0200089B0200083B
:1001300000F002F800F094F80AA090E8000C824465
:100140008344AAF10107DA4501D100F089F8AFF242
:10015000090EBAE80F0013F0010F18BFFB1A43F0A5
:1001600001031847EC3D00000C3E0000103A24BF8C
:1001700078C878C1FAD8520724BF30C830C144BF0C
:1001800004680C607047000000230024002500264E
:10019000103A28BF78C1FBD8520728BF30C148BFEA
:1001A0000B6070476E2900F0F986702900F0CF814E
:1001B000662903F00D86652903F00A86672903F096
:1001C00007866129AFF3008003681B0A28BF41F04E
:1001D0008001692900F0A686642900F0A3867529AC
:1001E00000F0A0866F2901F0A281782900F09B81A0
:1001F000E92900F02F81E42900F02C81F52900F095
:100200002981EF2901F09F81F82900F09A81036884
:10021000DB0928BF41F08001632901F0378273298F
:1002200001F03C82E32901F04782F32901F04C827E
:10023000002070471FB59DE8030000F063FD01F04A
:10024000BDF904000020002103F0ACFD401C6060FB
:100250000020002103F090FDE0601FBD10B510BD2F
:1002600001F0EDFA1146FFF7E5FF03F0F2FB01F0B4
:1002700013FB03B4FFF7F2FF03BC00F01DFD000009
:100280000948804709480047FEE7FEE7FEE7FEE72A
:10029000FEE7FEE7FEE7FEE7FEE7FEE70448054966
:1002A000054A064B70470000CD27000831010008C1
:1002B000B8040020B8140020B8100020B8100020A6
:1002C00070B5064600F002FD056806F10B0020F04F
:1002D0000704B4429CBF002070BD2B466A68BAB1C7
:1002E0001068A04210D304F1080188423CBF506856
:1002F000586007D35168101941601168091B0160EB
:1003000058601460101D70BD13465268002AE7D172
:100310002146284600F0E2FC0028DED170BD70B511
:100320000446051F00F0D2FC0068002C14BF44688E
:1003300070BD002C18BFAC423CBF20466468F8D3A7
:1003400001680A18AA4218BF456003D12A68054609
:100350001144016028684119A1421CBF6C6070BD46
:100360006168696021680844286070BD7CB51D46DD
:1003700016460C00009001D02044401E074B7B44E1
:100380002A4669460190304601F031F805461CB115
:100390000020694601F03EF828467CBD9D10000013
:1003A0000FB41CB5084B06AA7B446946009005981B
:1003B00001F01DF804460020694601F02BF82046A4
:1003C0001CBC5DF814FB0000691000000FB47CB584
:1003D0000C0009AA009001D02044401E084B7B4429
:1003E00069460190089801F002F805461CB100200A
:1003F000694601F00FF828467CBC5DF814FB00004C
:100400003D10000070B5044685690068C10601D53D
:10041000302600E02026C00707D070BDD4E90121B6
:1004200030469047206A401C20626D1EF6D570BD94
:1004300070B5044685690078C00707D170BDD4E95E
:10044000012120209047206A401C20626D1EF6D5B5
:1004500070BD00002DE9F0418046D21D22F0070258
:100460000025D2E90002F52915A614D0011E72F16B
:10047000000106DA0023D0EB030063EB020211A6B1
:1004800008E0D8F800108B0701D50FA602E0490755
:1004900001D50EA601251146002408F1240704E029
:1004A00000F066FC30323A55641C50EA0102F7D184
:1004B0002B46324621464046BDE8F04100F0D8BC0C
:1004C000000000002D0000002B00000020000000B4
:1004D000F0B40D460188090502D5214C7C4402E0A8
:1004E0001F4C7C440E34002100F1240608E002F089
:1004F0000F071209E75D42EA03721B097754491C92
:1005000052EA0307F3D102780023120704D5702DB5
:1005100006D009B1022311342246F0BC00F0A8BC79
:1005200001231034F8E770B504460D4621461068E3
:1005300000F06CFC024629462046BDE870400023CE
:10054000C6E7D21D22F00703D3E90023C0E7036802
:10055000126843F0200303600823C3610023B7E758
:10056000993900002DE9F05F894604464FF0000AF2
:10057000DFF874B1FB44C0F820A02046E16888474A
:10058000002874D0252806D0D4E901219047206A9C
:10059000401C2062F1E700265F462046E16888475C
:1005A0002028054607DB312D05D2781910F8200CDC
:1005B00008B10643F1E7B00701D526F00406C4F8F8
:1005C0001CA00027C4F818A02A2D09D0284602F044
:1005D00089FA38B304EB8708303DC8F8185019E0A1
:1005E00059F8041B204604EB87029161E1688847B3
:1005F000012F054618D1E069002820DA26F02006F0
:100600001DE0D8F8180000EB800005EB4000303802
:10061000C8F818002046E1688847054602F062FAEB
:100620000028EED1012F0AD02E2D08D12046E168F6
:1006300088477F1C0546022F46F02006C4DBA069D0
:10064000002803DA404246F00106A061F00701D01D
:1006500026F010066C2D0BD0682D09D04C2D39D00A
:100660006A2D35D0742D35D07A2D33D016E038E090
:10067000E1682F4620468847B842054609D16C2FCD
:1006800026D04FF48060E16806432046884705463F
:1006900004E06C2F1AD04FF4807006430DB3A5F11F
:1006A0004100192802D8203546F400664A462946FA
:1006B000204626604E46FFF775FD80B101280BD01D
:1006C000F61D26F0070000F1080956E74020E4E790
:1006D0008020D8E70020D6E706F104094DE7284638
:1006E00052E7206ABDE8F09F2939000010B50020CC
:1006F00000F034FFFFF7B2FDBDE81040012000F02C
:10070000DBBA2DE9F04F9B4616464FF00109C1B008
:1007100020910090A9F1010920A85DF8295050F816
:100720002900C5E04FEA6A0070432C185FEACA71DD
:1007300000D1801B5A46214627182846904700289A
:100740000EDD304646EA0501890765D02278297812
:10075000401E05F8012B04F8011BF7D1AD1BA41BAB
:100760005A46394620469047002823DD5A463946E6
:100770002846904700280EDD304646EA05018907E5
:1007800051D03A782978401E05F8012B07F8011B53
:10079000F7D1AD1BBF1B304646EA0401890749D09B
:1007A0003A782178401E04F8012B07F8011BF7D195
:1007B000A41BBF1B314646EA0402B81B920740D077
:1007C00003782278491E04F8013B00F8012BF7D189
:1007D0002C46871BB84634445A464146204690472B
:1007E0000028F8DB5A464146BF1B38469047002890
:1007F000F8DC304646EA0401A7424FEA81712ED95F
:1008000031B33A782178401E04F8012B07F8011B18
:10081000F7D1A41BBF1BDEE722682968001F04C5AF
:1008200002C4F9D19AE73A682968001F04C502C7D3
:10083000F9D1AEE73A682168001F04C402C7F9D1B4
:10084000B6E703682268091F08C404C0F9D1BFE7EE
:100850003A682168001F04C402C7F9D1D9E7E1B1A1
:1008600098F800202178401E04F8012B08F8011B9D
:10087000F6D1A21B501BB0FBF6F0401EAAEB000104
:10088000491E884216DD0A2910DD20AB4DF829509B
:1008900043F8290009F1010918E0D8F8002021687F
:1008A000001F04C448F8041BF7D1E2E70A2810DD52
:1008B000824637E70A2807DD4DF8292020AA42F8AA
:1008C000291009F10109F3E70A2902DD15468A46D4
:1008D00028E7B9F1000F7FF41DAF41B0BDE8F08FFC
:1008E0002DE9F04799460F460646140039D0002FEF
:1008F00037D00A2F01D9FFF704FF7F1E354607FBCB
:1009000004582CE02F46254400E03F1BB74205D396
:100910004A462946384690470028F6DC44EA050056
:100920003B1980070CD0002117E029180A1B0F681B
:1009300002E011681151121B9A42FAD2001D1751A0
:10094000A0420CD2F1E76818027801E00778075559
:10095000001B9842FAD2491C0255A142F3D34545E7
:10096000D0D3BDE8F087401ECAB210F8011F8A42FA
:1009700002D00029F9D10020704740EA0103024665
:1009800030B59B0710D14FF0013400E008C208C910
:100990001D1B9D4315EAC41FF8D013F0FF0102F898
:1009A000011B0DD01B0AF8E711F8013B002B02F8E0
:1009B000013B05D011F8013B002B02F8013BF3D1BC
:1009C00030BD10B5431C02E010F8011B71B1810766
:1009D000FAD14FF0013202C88C1A8C4314EAC211CA
:1009E000F9D0C01A0A0603D0C01E10BDC01A10BD2F
:1009F0000A0401D0801E10BD0902FCD0401E10BDAB
:100A0000032A40F2308010F0030C00F0158011F83A
:100A1000013BBCF1020F624498BF11F801CB00F812
:100A2000013B38BF11F8013BA2F1040298BF00F866
:100A300001CB38BF00F8013B11F0030300F06780E1
:100A4000083AC0F0088051F8043B083A51F804CB4A
:100A5000A0E80810F5E7121D5CBF51F8043B40F810
:100A6000043BAFF30080D20724BF11F8013B11F81B
:100A700001CB48BF11F8012B24BF00F8013B00F85F
:100A800001CB48BF00F8012B7047431A28BF9A4298
:100A90007FF6B6AF032A1044114440F2268010F0CE
:100AA000030F1EBF11F8013D521E00F8013D10F06A
:100AB000030F7FF4F6AF11F0030300F06D80083AE6
:100AC000C0F00B8051F8043D083A51F804CD40F8CD
:100AD000043D40F804CDFFF7F3BF121D5CBF51F891
:100AE000043D40F8043DAFF30080D20724BF11F865
:100AF000013D11F801CD48BF11F8012C24BF00F8C9
:100B0000013D00F801CD48BF00F8012C704710B539
:100B1000203AC0F00B80B1E81850203AA0E81850F5
:100B2000B1E81850A0E81850BFF4F5AF5FEA027CB6
:100B300024BFB1E81850A0E8185044BF18C918C025
:100B4000BDE810405FEA827C24BF51F8043B40F8C6
:100B5000043B08BF7047D20728BF31F8023B48BFAB
:100B600011F8012B28BF20F8023B48BF00F8012BE9
:100B70007047431A28BF9A427FF6C9AF104410F05D
:100B8000030F11441EBF11F8013D521E00F8013D34
:100B900010F0030F7FF4F6AF103AC0F00A8010B5E2
:100BA00031E91850103A20E91850BFF4F9AFBDE808
:100BB0001040530724BF31E9081020E9081044BF52
:100BC00051F8043D40F8043D12F0030F08BF704790
:100BD000D20728BF31F8023D48BF11F8012C28BFC9
:100BE00020F8023D48BF00F8012C70474FF000028A
:100BF0000429C0F0128010F0030C00F0B884CCF18E
:100C0000040CBCF1020F18BF00F8012BA8BF20F89C
:100C1000022BA1EB0C0100F0AABC5FEAC17C24BF4F
:100C200000F8012B00F8012B48BF00F8012B70479A
:100C30004FF0013C50F8042B51F8043B9A4221D16B
:100C4000A2EB0C03934313EACC1317D150F8042BF7
:100C500051F8043B9A4215D1A2EB0C03934313EADB
:100C6000CC130BD150F8042B51F8043B9A4209D114
:100C7000A2EB0C03934313EACC13DBD04FF000003C
:100C8000704700BFD01A01BAB1FA81F101F0180122
:100C900022FA01F0CB40C1F12001DBB2C0B2C01A90
:100CA0002CFA01F3D11A914311EAC311E6D170472E
:100CB000704770477047000001491820ABBEFEE73F
:100CC0002600020000487047540400200048704786
:100CD0005C040020704770477047704738B5044681
:100CE0000A4600206946AFF30080002808BF38BDDF
:100CF00002460099204600F065FC012038BD012025
:100D000000F096BDF8B5AFF30080054600200C4614
:100D1000102000BF0646A819A0420DD932466946E8
:100D20000020AFF30080070008BF00F081FD0098AD
:100D3000A04218BF0546C419FFF7C8FF0560074663
:100D4000F01D20F007004619284600F00AF8B442CA
:100D500008BFF8BDA21B31463868BDE8F84000F076
:100D600031BC00210160C0E90110704710207047BC
:100D700030B5B0F10A024FEA900E71F100034EEA6D
:100D8000817EB0EB0E0061EB91014FEA101E4EEA3E
:100D9000017E10EB0E0041EB11114FEA102E4EEACE
:100DA000016E10EB0E0041EB11214FEA104E4EEA9E
:100DB000014E10EB0E0041EB1141401841F10001D2
:100DC0004FEAD00040EA41704FEAD10110EB8005B4
:100DD0004FEA810444EA907444EB01046D1944EB3A
:100DE0000404521BA3414FF0000348BF0A3200D550
:100DF00030BD401C41F1000130BD09684A0501D5F4
:100E000040B27047C905FCD500B2704709684A0571
:100E100001D5C0B27047C905FCD580B2704770B526
:100E20000C460546012A05D02878800600D5EA69D7
:100E3000002302E0012305E05B1C934202D2E05C48
:100E40000028F9D1A869E618C01AA861286A1844D0
:100E500028622846FFF7D6FA04E0D5E9012114F804
:100E6000010B9047B442F8D32846FFF7E1FA70BD72
:100E70002DE9F0470D4699469246044600F12408B4
:100E80000168880604D5E06921F01001216000E0C6
:100E90000120A84201DD471B00E00027A1697A1963
:100EA00002EB0900081AA0612078C00602D420468F
:100EB000FFF7A8FA002608E0D4E901211AF8060095
:100EC0009047206A401C761C20624E45F4DB207857
:100ED000C0060AD52046FFF795FA06E0D4E90121BD
:100EE00030209047206A401C2062381EA7F101077D
:100EF000F4DC07E0D4E9012118F805009047206AE6
:100F0000401C2062281EA5F10105F3DC2046FFF7F6
:100F10008FFA2078000602D50220BDE8F087012074
:100F2000FBE700002DE9F041064600241068752912
:100F3000314616A510D0FFF760FF002802DA4042C4
:100F400013A507E031688A0701D512A502E0490719
:100F500004D511A5012401E0FFF758FF00210A2262
:100F600006F1240709E0B0FBF2FCB0FBF2F302FB50
:100F70001C00303078541846491C0028F3D1234611
:100F80002A463046BDE8F041FFF772BF000000007E
:100F90002D0000002B0000002000000011680268F6
:100FA000006A530501D508700AE0D30501D5088011
:100FB00006E0130603D5C217C1E9000200E008608D
:100FC0000120704770472DE9FF4F0C461E464FF039
:100FD000FF378BB0D2E90001DDF860800A908A46C5
:100FE000C1F30A5505B93D46002108464FF00000FF
:100FF000BAF1000F00F4400005DA00EB80004FF476
:10100000400101EA50004FEA9059B9F1010F00DDAB
:10101000B9460A9850EA4A000ED044F61050A5F29C
:10102000FF3545432F14B8F1000F1ED07542291E1D
:101030001EDDC9F100021CE0B8F1010F4FF0000005
:1010400001D0302103E0F24305E02154401CB042BE
:10105000FBDB30460022002121540B99C1F80880A7
:10106000C1E900200FB0BDE8F08FBD1B6D1CDEE7AD
:101070004A4600DA694206A800F02AFB06AB93E86C
:10108000070003AB83E8070050460A9900F055FCBF
:101090008DE80700A0F500501F3800900398002D40
:1010A0000ADD42F21F014A460844002303A90390C7
:1010B000684600F0BEFE09E0A0F500504A461F3821
:1010C000002303A90390684600F0C8FE8DE80700DE
:1010D0000004000C03D04FF0FF30410800E0104640
:1010E000B8F1000F03D00022009215461EE0751ED5
:1010F00005D4FFF73DFE303262556D1EF9D5B3467B
:101100000122084302D000227F1C04E0207830280E
:1011100001D100227F1E002A099784D01DE0112DE5
:1011200007DAFFF725FE303262556D1C50EA0102E6
:10113000F5D1084302D00098C8B10EE00021681E26
:1011400005E0235C625C63542254401E491C8142CA
:10115000F7DBAB46A81B401E0990002004F80B00EB
:101160000B98099AC0F80880C0E9002B7AE711268D
:101170004FF0000857E72DE9F04F88460446D21D8E
:1011800022F0070191B0D1E90001CDE90A0101F097
:101190007DFC02460B98C00F01D02D2007E020688F
:1011A000810701D52B2002E0202101EAC000032A9B
:1011B000099001D0072A05DB03464146204600F08E
:1011C0001BFA0BE12078800601D5E06900E00620DB
:1011D000B8F1650F814606D0B8F1660F18D0B8F1A6
:1011E000670F70D131E00020B9F1110F009001DBE1
:1011F000112301E009F101030AAA01A90CA8FFF7D4
:10120000E2FEDDE90C70002609F10105834647E0A6
:1012100001204B4600904FF000470AAA01A90CA8F4
:10122000FFF7D1FEDDE90DB00C995D46002610B93F
:1012300009F101000D18B9EB050003D4C0F1FF3628
:1012400009F10105A5EB09002BE0B9F1010F01DA65
:101250004FF001090020B9F1110F0090484601DD5F
:10126000112300E003460AAA01A90CA8FFF7ABFE70
:10127000DDE90C704D4600268346207800070AD42D
:10128000AB4500DA5D4601A8012D04DD411911F8D6
:10129000011C302907D04F4502DA17F1040F04DA98
:1012A000012082460FE06D1EEEE7002F02DCED1BF1
:1012B0003E4403E0781CA84200DD7D1CB81B00F111
:1012C000010A4FF000472078000703D4AA4501DB4C
:1012D0004FF0FF3A0021B7F1004F0DF143088DF8B0
:1012E000431024D002202B23002F01DA7F422D232C
:1012F0000A21021EA0F1010000DC5FB197FBF1FCA6
:1013000097FBF1F201FB1C7C17460CF1300C08F83E
:1013100001CDEEE7A8F1010003702188090501D590
:10132000452100E06521A0F1010800F8011C0998A1
:101330000FA9A1EB0807FF1D00B10120411901EB26
:10134000EA70A1693844081A401EA0612078C006DE
:1013500002D42046FFF756F8099828B1D4E90121B4
:101360009047206A401C20622078C00622D5204683
:10137000FFF748F81EE0002E04DBB34502DD01A8AC
:10138000805D00E03020D4E901219047206A401CB4
:101390002062761CAAF101005FEA000A0AD100F07F
:1013A0000DF9C0680168405CD4E901219047206ACA
:1013B000401C2062281EA5F10105DCDC07E0D4E911
:1013C000012118F8010B9047206A401C2062381E4A
:1013D000A7F10107F3DC2046FFF72AF8032011B03C
:1013E00041E6000001694A1C02610878704700B5B7
:1013F0008FB0CDE901310021059105497944CDE94E
:10140000031011466846FFF7ADF80FB000BD0000AD
:10141000E5FFFFFF0A6802F8010B0A607047D1E997
:1014200000239A4202D2531C0B60107070470000D8
:101430002DE9FF5F15468A460446DFF8AC80F84484
:101440000027D8E900103E46CDE9001010E03AF838
:1014500016106A4602A800F0ADF9411C07D02178A9
:10146000890603D5E269391891420DD80744761CE4
:101470002078800602D5E069B84205DDAE42E6DBA1
:101480003AF816000028E2D1A069C01BA0612046EE
:10149000FEF7B8FFD8E90010CDE90010002017E0F2
:1014A0003AF818106A4602A800F084F9B0F1FF3F3C
:1014B00081460BD000250DF1080B05E0D4E9012190
:1014C0001BF8050090476D1C4D45F7D308F101004E
:1014D000B0428046E4DB206A384420622046FEF7B2
:1014E000A7FFBDE8FF9F0000722A000030B4002172
:1014F00000F1240408E002F00705D208303542EA82
:101500004372DB086554491C52EA0305F3D10468B1
:10151000002310A2250707D5A40600D421B1C46971
:1015200001230DA2641EC46130BCFFF7A1BC10B53D
:10153000044621461068FFF769FC02462046BDE8D4
:1015400010400023D2E7D21D22F00701D1E9002389
:10155000CCE70000000000003000000010B500F0F3
:101560004FF9BDE8104000F045B94FF0000200B55A
:10157000134694469646203922BFA0E80C50A0E8B6
:101580000C50B1F12001BFF4F7AF090728BFA0E864
:101590000C5048BF0CC05DF804EB890028BF40F830
:1015A000042B08BF704748BF20F8022B11F0804F72
:1015B00018BF00F8012B70477047000000487047C3
:1015C00074040020034640688C46002818BF8842F7
:1015D0003CBF03464068F8D318681844884207D0D7
:1015E0000CF1030020F00700001D411A521A0146B9
:1015F000081D0A60FEF793BE2DE9F0411F46044620
:1016000003260168072A01F4006004DB08B116A56F
:1016100005E016A503E008B115A500E015A521F029
:1016200010002060A069C01EA0610FB1401EA06123
:101630002046FEF7E7FE4FB1D4E901213846904736
:10164000206A401C2062C01C206206E0206AFAE783
:10165000D4E9012115F8010B9047761EF8D22046F7
:10166000FEF7E6FEBDE8F0814E414E006E616E0071
:10167000494E4600696E660010B5436913B1AFF379
:10168000008001E0FFF7CBFB012010BD127800F1D4
:1016900024010A7000224A700122EDE711684FF020
:1016A000FF32E9E710B5436913B1AFF3008001E001
:1016B000FFF7BEFE012010BD128800F124018284D4
:1016C0000022C2840122EDE711684FF0FF32E9E702
:1016D0002DE9F047814616468AB0354878440DC852
:1016E0008DE80D0032487844801C03AC0DC884E8B6
:1016F0000D0041F69B300844372190FBF1F290FB3E
:10170000F1F5A5F1800501FB12041B3C02D56442F2
:10171000012000E00020DFF898A080460027FA446E
:10172000AAF1BE0A0EE0E0070AD03246684607EB8F
:10173000470101230AEB810100F090FB8DE80700CF
:1017400064107F1C002CEED1194F7F44AE3F19E08E
:10175000E80715D007EB04100DF1180A90E80E0009
:101760008AE80E00C068F04201D19819089032460C
:10177000012306A903A800F071FB03AB83E807006F
:101780006D10641C002DE3D14FF001033246694611
:10179000B8F1000F03A802D000F04BFB01E000F00D
:1017A0005DFBC9E90001C9F808200AB0BDE8F0876F
:1017B0005828000070B516460C46054600F064F83F
:1017C000036893F80101012806D0FF2C0FD8185D9B
:1017D00068B101202C7070BDD3F807013246214654
:1017E00003F2071303442846BDE8704018474FF042
:1017F000FF3070BD002801D0FFF75EBA70470000CF
:1018000010B5002102A000F050F8012010BD00002A
:10181000534947414252543A2041626E6F726D61A2
:101820006C207465726D696E6174696F6E00000082
:1018300010B500F053F8BDE81040FFF7DBBF754668
:10184000FFF740FAAE4605006946534620F0070010
:10185000854618B020B5FEF721FDBDE820404FF0C9
:1018600000064FF000074FF000084FF0000B21F08A
:101870000701AC46ACE8C009ACE8C009ACE8C00957
:10188000ACE8C0098D46704710B5FFF797FE001D04
:1018900010BD00BF1125000010B50446AFF3008055
:1018A0002046BDE81040FEF7E4BC70B505460C4686
:1018B0000A2000E06D1C00F039F835B128780028C6
:1018C000F8D102E0641C00F031F814B1207800284F
:1018D000F8D1BDE870400A2000F028B810B5012802
:1018E00005D0002103A0FFF7E0FF012010BD09A1F2
:1018F000F8E7000053494752544D454D3A204F7583
:1019000074206F662068656170206D656D6F7279F7
:10191000000000003A2048656170206D656D6F72AF
:101920007920636F727275707465640008B56946DA
:101930008DF800000320ABBE08BD5FEA400C08BF75
:1019400091F0000F4FEA8C234FEAC12243EA515134
:101950004FEA1C5018BF00F5F0404FEA300018BFA6
:1019600041F000415FEA6C5C00F02980BCF1FF3F70
:1019700008BF40F080407047130C06BF12044FF0C0
:10198000100C4FF0000C130E04BF12020CF1080CE7
:10199000130F04BF12010CF1040C930F04BF92004B
:1019A0000CF1020CD30F04BF52000CF1010C1146D4
:1019B0004FF00002A0F11F00A0EB0C00704711F0E7
:1019C000004F08BF704731F000413FF4D5AF0B0C1A
:1019D00006BF09044FF0100C4FF0000C0B0E04BFB3
:1019E00009020CF1080C0B0F04BF09010CF1040CE7
:1019F0008B0F04BF89000CF1020CCB0F04BF490010
:101A00000CF1010CCCF12003A0EB0C0022FA03F343
:101A100002FA0CF241EA030100F10100704720F0E4
:101A20007F4C80EA030023F07F47ACEB070303F50C
:101A30007C5300F0004003F1FF032DE980494FEA99
:101A4000154B09B44FEA144325EA0B4E24EA034828
:101A50000FF2042606EB132749083E785FEA3202AC
:101A600003FB0667C7F5000707FB06F64FEA543786
:101A70004FEAD64606F1020607FB066CCCF1005C85
:101A80004FEA1C472CEA074C07FB06F40CFB06F553
:101A900004EB15464FEA961634BF00204FF0004085
:101AA0004FEAD13706FB07FC4FEA1C4C0CFB0BF747
:101AB000D21B03FB0CF761EB07010CFB0EF7B0EB3D
:101AC000074072EB17420CFB08F734BFA2EB07424A
:101AD000B2EB074261EB17414FEA0C444FEA910722
:101AE00006FB07FC4FEA1C4C0CFB0BF7B0EBC740A6
:101AF00072EB573203FB0CF734BFA2EBC742B2EBD9
:101B0000C74261EB57310CFB0EF7B0EBC70072EB2D
:101B100057720CFB08F734BFA2EBC702B2EBC70247
:101B200061EB5771039F4FEA816141EA921104EB27
:101B3000CC044FEAD1374FEA826206FB07FC42EA47
:101B400090124FEA80604FEA1C4C0CFB0BF7D21B43
:101B500003FB0CF761EB07010CFB0EF7B0EB074042
:101B600072EB17420CFB08F734BFA2EB0742B2EB53
:101B7000074261EB17414FEA8C554FEA910704EB9E
:101B80009C2406FB07FC4FEA1C4C0CFB0BF7B0EB4C
:101B9000C74072EB573203FB0CF734BFA2EBC742CE
:101BA000B2EBC74261EB57310CFB0EF7B0EBC7004D
:101BB00072EB57720CFB08F734BFA2EBC702B2EB13
:101BC000C70261EB577115EB4C254FEA816141EA81
:101BD00092114FEA82624FEAD13742EA901206FB35
:101BE00007FC44F100044FEA80604FEA1C4C0CFBF8
:101BF0000BF7D21B03FB0CF761EB07010CFB0EF795
:101C0000B0EB074072EB17420CFB08F734BFA2EBB6
:101C10000742B2EB074261EB174115EB1C154FEA87
:101C2000813141EA92414FEA823242EA90424FEAE0
:101C300080304FEA0C7644F1000448EA03434EEA50
:101C40000B484FF0000EB2EB080C71EB030724BFFA
:101C5000624639464EEB0E0E4FF0000B0018524113
:101C600049414BEB0B0BB2EB080C71EB03077BF11B
:101C7000000B24BF624639464EEB0E0E4FF0000BB0
:101C80000018524149414BEB0B0BB2EB080C71EBC6
:101C900003077BF1000B24BF624639464EEB0E0E64
:101CA00051EA020718BF46F0010616EB0E7655F111
:101CB000000254F1000103D5BDE88901BDE80088A8
:101CC000BDE88901BDE80048B619524141EB010168
:101CD000A3F10103704780807F7E7D7C7B7A7978D9
:101CE000777676757473727171706F6E6E6D6C6CE1
:101CF0006B6A6A6968686766666564646363626183
:101D00006160605F5F5E5E5D5D5C5C5B5B5A5A5903
:101D1000595858575756565555555454535352526F
:101D20005251515050504F4F4F4E4E4D4D4D4C4CC7
:101D30004C4B4B4B4A4A4A49494948484847474710
:101D4000474646464545454444444443434343424D
:101D5000424242414141002B9C4630D477002BD077
:101D60001CB54FEA370703B44FF010004FF01001D5
:101D7000BAF1000F06D0BCF1000FDCBF40F0080044
:101D800040F008014FF000000FBCBDE810400BF11F
:101D9000010BBBF1010F08BF5FEA170722BF12F169
:101DA000010211F101014FF0004143F1000300F085
:101DB000004043EA00007047F9D35708D0E746EAED
:101DC000064613F1400F4FEA16461FDD13F1200FB0
:101DD000DFBF16430A46002120335B42BED0C3F169
:101DE000200746EA064602FA07F74FEA164646EA91
:101DF0000706C3F1200722FA03F201FA07F721FAD6
:101E000003F14FF0000342EA0702A7E746EA0206A1
:101E100046EA06464FEA164646EA0106BCBF46EACF
:101E20000646360C4FF000034FF000024FF0000161
:101E300094E72DE9804C9A46934670B491E83800B7
:101E400007C831EA400C48BF34EA430C03D5FFF71A
:101E5000E6FDFFF780FFF0BCBDE8008C2DE9804C6B
:101E60009A46934670B491E8380007C810F0804F46
:101E700008BF13F0804F03D100F005F8FFF76BFFA8
:101E8000F0BCBDE8008C20F07F4780EA030023F01F
:101E90007F4C07EB0C03A3F57C5300F00040A3F14B
:101EA000FE0392F0000F00F0B38095F0000F00F0F9
:101EB00077802DE901494FEA11404FEA144621EAA3
:101EC000004800FB06FC24EA064708FB06F607FB71
:101ED00008F800FB07F718EB06484CEB164C4FEAE6
:101EE000124B18EB07484FEA15464CEB174022EA15
:101EF0000B4E0BFB06FC25EA06470EFB06F607FB1E
:101F00000EFE0BFB07F71EEB064E4CEB164C4FF08C
:101F100000061EEB074E4CEB174B18EB0B0840F17D
:101F2000000018EB0E0B58EB000840F100008F1A70
:101F30004FF000013CBFC943661B14BFB5EB040C56
:101F400000213CBFC943F61B4FEA17444EEA8E0EF0
:101F500027EA04454FEA1C4704FB07622CEA074CBA
:101F600005FB07F70CFB05F604FB0CFC16EB07461C
:101F700042EB174216EB0C4642EB1C421BEB0606EB
:101F800058EB0202414146EA9E0601D5BDE80189AF
:101F9000B619524141EB0101A3F10103BDE80189EA
:101FA0004FEA14454FEA114724EA054621EA074C57
:101FB00005FB07F406FB07F70CFB06F105FB0CFC21
:101FC00011EB074144EB17444FEA124711EB0C4168
:101FD00044EB1C4422EA074C05FB07F206FB07F71B
:101FE0000CFB06F605FB0CFC16EB074642EB174212
:101FF00016EB0C4642EB1C456A1854F1000148BF31
:102000007047B619524141EB0101A3F1010370473A
:1020100095F0000F37D04FEA11424FEA144721EAFA
:10202000024624EA074C02FB07F106FB07F70CFB0C
:1020300006F402FB0CFC14EB074441EB17414FEA9A
:10204000154714EB0C4441EB1C4125EA074C02FBFD
:1020500007F506FB07F70CFB06F602FB0CFC16EB7C
:10206000074645EB174516EB0C4645EB1C4212198B
:1020700051F1000148BF7047B619524141EB0101CF
:10208000A3F1010370474FEA14454FEA114724EAD0
:10209000054621EA074C05FB07F106FB07F70CFB99
:1020A00006F24FF0000605FB0CFC12EB074241EB79
:1020B000174112EB0C4251EB1C4148BF704792187C
:1020C00041EB0101A3F10103704700BFFEE7704738
:1020D0002DE9F041024600250026002000230024BF
:1020E000002791F803C00CF00F0591F803C00CF025
:1020F000100CBCF1000F03D091F802C04CEA0505AA
:1021000091F800C0BCF1000F31D0146800202BE022
:102110004FF0010C0CFA00F3B1F800C00CEA030612
:102120009E4220D183004FF00F0C0CFA03F7BC4302
:1021300005FA03FC4CEA040491F803C0BCF1280F33
:1021400006D14FF0010C0CFA00FCC2F814C00AE0F2
:1021500091F803C0BCF1480F05D14FF0010C0CFA07
:1021600000FCC2F810C0401C0828D1D31460B1F89C
:1021700000C0BCF1FF0F34DD546800202EE000F1F8
:10218000080C4FF0010808FA0CF3B1F800C00CEA93
:1021900003069E4221D183004FF00F0C0CFA03F787
:1021A000BC4305FA03FC4CEA040491F803C0BCF1FB
:1021B000280F05D100F1080C08FA0CF8C2F81480B9
:1021C00091F803C0BCF1480F07D100F1080C4FF0A3
:1021D000010808FA0CF8C2F81080401C0828CED379
:1021E0005460BDE8F08100BFFEE700002DE9F0413A
:1021F00001F082FA044601F085FB07463A4621A128
:10220000204601F0E7FA1420002101F05BFA0746AE
:102210003A461EA1204601F0DDFA1D481D4901F095
:102220001CFB07463A461CA1204601F0D3FA1CA02D
:1022300001F039FB07463A461CA1204601F0CAFAD4
:102240001CA001F030FB05462A4622A1204601F0E1
:10225000C1FA22A001F027FB07463A4621A12046F9
:1022600001F0B8FA4FF48071204601F009FA0646F1
:10227000204601F09FF931461CA000F041F90020F2
:10228000BDE8F08173746174757300006167650067
:102290009A9999999999534073636F7265000000F8
:1022A0007768696B31313934000000006E616D650B
:1022B0000000000068747470733A2F2F626C6F67AF
:1022C0002E6373646E2E6E65742F7768696B31317F
:1022D00039340000626C6F67000000006D63753177
:1022E0003439000077656368617400000D0A6A7311
:1022F0006F6E5F737472696E673A0D0A25730D0A0B
:10230000000000002DE9F04101F0F6F9054601F06A
:10231000F3F9044621A001F0C6FA07463A4622A185
:10232000204601F057FA23A001F0BDFA07463A46CD
:1023300025A1204601F04EFA0120002101F0C2F94A
:1023400007463A4623A1204601F044FA23A001F0B3
:10235000AAFA07463A4624A1204601F03BFA24A0F7
:1023600001F0A1FA07463A4622A1284601F032FAC6
:10237000224622A1284601F02DFA4FF4807128460A
:1023800001F07EF90646284601F014F931461DA0F9
:1023900000F0B6F80020BDE8F08100003135393298
:1023A000363430323439000074696D657374616D90
:1023B00070000000323032302D30362D3230203176
:1023C000363A30343A3039006461746574696D6549
:1023D0005F3100007765656B5F3100005361747594
:1023E00072646179000000007765656B5F32000000
:1023F00031000000737563636573730072657375F4
:102400006C7400000D0A6A736F6E5F737472696E8C
:10241000673A0D0A25730D0A000000002DE9F0430C
:102420009FB03C22274910A8FEF771FB3C222549AA
:102430003C3101A8FEF76BFB002401F05DF98046FA
:1024400001F01BF8064601F057F9054600BF17E0FA
:1024500004EB840101AA02EB810001F024FA814619
:1024600004EB840010AA02EB80014A46284601F0E2
:10247000B1F92A462146304601F04EF8601CC4B23C
:10248000032CE5DB324610A1404601F0A3F911A070
:1024900001F009FA81464A4611A1404601F09AF935
:1024A0004FF48071404601F0EBF80746404601F0DA
:1024B00081F839460CA000F023F800201FB0BDE8D9
:1024C000F0830000E03D00086C6F636174696F6E1B
:1024D00000000000323031382D31312D313700000D
:1024E00074696D65000000000D0A6A736F6E5F739A
:1024F0007472696E673A0D0A25730D0A00000000B8
:102500000FB410B5CCB002AC4FA801904FF4947149
:1025100002A8019B4E9AFDF729FF002001900BE0D5
:1025200000BF4021084800F0D0F90028F9D014F885
:10253000011B054800F097FA20780028F0D14CB034
:1025400010BC5DF814FB00000038014000BFFEE73E
:102550007047000070B5002100230F22C47804B337
:10256000154C246804F4E064C4F5E064210AC1F168
:102570000403CA40447804FA03F1847814402143E8
:1025800009010E4C0678A155047804F01F050124BA
:10259000AC4005786D11AD0005F1E025C5F80041AE
:1025A00009E0047804F01F050124AC40044D0678CE
:1025B000761145F8264070BD0CED00E000E400E027
:1025C00080E100E029B1064A92690243044B9A6116
:1025D00004E0034A92698243014B9A61704700000C
:1025E0000010024030B500210022002400232D4DB0
:1025F0006D6805F00C0121B1042905D0082923D10B
:1026000005E0294D056022E0274D05601FE0254DBE
:102610006D6805F47012234D6D6805F48034022551
:1026200005EB92421CB9214D554305600BE01D4D51
:102630006D6805F400351DB11C4D5543056002E081
:10264000194D5543056002E0174D056000BF00BFFE
:10265000144D6D6805F0F0010909154D6B5C0568B6
:10266000DD4045600F4D6D6805F4E061090A104DCD
:102670006B5C4568DD4085600A4D6D6805F460510E
:10268000C90A0B4D6B5C4568DD40C560054D6D6842
:1026900005F44041890B074D6B5CC568B5FBF3F54C
:1026A000056130BD0010024000127A0000093D00B3
:1026B0000800002018000020704710B500F002F854
:1026C00010BD00000CB50020019000903348006858
:1026D00040F480303149086000BF3048006800F4A1
:1026E000003000900198401C0190009818B90198A2
:1026F000B0F5A06FF1D12948006800F4003010B1A6
:102700000120009001E0002000900098012843D1B2
:102710002348006840F0100021490860084600681E
:1027200020F0030008600846006840F002000860DE
:102730001A48406819494860084640684860084699
:10274000406840F4806048600846406820F47C108F
:1027500048600846406840F4E81048600846006851
:1027600040F08070086000BF0C48006800F0007006
:102770000028F9D00948406820F003000749486064
:102780000846406840F00200486000BF03484068C7
:1027900000F00C000828F9D10CBD00000010024028
:1027A00000200240042808D14FF0E021096941F0DF
:1027B00004014FF0E022116107E04FF0E0210969C8
:1027C00021F004014FF0E0221161704710B5134869
:1027D000006840F00100114908600846406810494F
:1027E00008400E494860084600680E4908400B49F9
:1027F00008600846006820F48020086008464068A9
:1028000020F4FE0048604FF41F008860FFF755FF7A
:102810004FF000600449086010BD00000010024045
:102820000000FFF8FFFFF6FE08ED00E010B540F2F3
:102830002551144800F056F8E8B1124800F00EF99E
:10284000C4B211481149098844540D2C0ED10120FD
:102850000F4908700C48FFF7C9FC4FF480610A4823
:10286000FEF7C4F900200949088004E00748008801
:10287000401C0649088040F22551024800F00AF841
:1028800010BD00000038014054000020020000206C
:102890000000002010B50022002340F66A14A14277
:1028A00000D100BF0A1201249440A3B2DC4304808B
:1028B00010BD21B1828942F40052828104E08289F4
:1028C0004DF6FF731A408281704702460020B1F531
:1028D000007F00D100BF13880B400BB1012000E046
:1028E0000020704770B50246002400230025002018
:1028F00040F66A16B14200D100BFC1F3421501F0A3
:102900001F03012606FA03F3012D02D196893340F5
:1029100006E0022D02D1168A334001E0968A334048
:102920000C12012606FA04F41688344013B10CB1D7
:10293000012000E0002070BDF0B503460024002611
:102940000025002040F66A17B94200D100BF1846A2
:10295000C1F3421401F01F06012707FA06F5012C06
:1029600001D10C3004E0022C01D1103000E0143011
:102970001AB107682F43076002E00768AF4307609A
:10298000F0BD00002DE9F04786B005460E46002454
:10299000A24600BFA1460027B08900B100BF2F4664
:1029A0002C8A4CF6FF700440F08804432C82AC89DA
:1029B0004EF6F3100440B08831890843718908430A
:1029C0000443AC81AC8A4FF6FF400440B089044315
:1029D000AC8201A8FFF706FE1F48874202D1DDF84E
:1029E00010A001E0DDF80CA0A88900F4004040B17F
:1029F0000AEBCA0000EB0A1031684900B0FBF1F89D
:102A000007E00AEBCA0000EB0A1031688900B0FB4E
:102A1000F1F86420B8FBF0F004012009642101FB07
:102A20001089A88900F4004040B1322000EBC900B1
:102A3000B0FBF1F000F00700044308E0322000EBA7
:102A400009106421B0FBF1F000F00F0004432C8169
:102A500006B0BDE8F08700000038014001468888D4
:102A6000C0F308007047C1F308028280704700BFBE
:102A7000FEE730B47446641E2578641CAB4200D275
:102A80001D46635D5B00E31830BC1847490050EAFF
:102A9000C12018BF04204A0D18BF40F0010040F2C9
:102AA000FF72B2EB515F08BF40F00200012808BF7F
:102AB00005207047012249005205D14201D100286A
:102AC00001D000207047012070470000002800D08E
:102AD00001200143480002494008081AC00F70470E
:102AE0000000F07F30380A2801D201207047002012
:102AF000704770B50D4604998C0099008918AA009A
:102B000010182246FEF703F870BD10B50069920058
:102B10008418890040189A002146FEF72AF810BD53
:102B20000A680C30824204D14868824201D10120F7
:102B3000704700207047000010B56FF00400FFF7E9
:102B400031FE0A4800680A49B0FBF1F009490870F3
:102B50000846007800EB4001C1EBC0104FF6FF7152
:102B600001EAC0000449088010BD00001C000020DC
:102B700000127A000400002006000020FFB59DB07E
:102B80001D98269D1C460E4600287DD00078012108
:102B90000300FFF76EFF089841321121090D0579F6
:102BA0002A460421C9A08EE12A460421C9A08AE14F
:102BB0002A460521C9A086E11D9800F091FD0191EA
:102BC0000090C8A2642102A8FDF700FC0146642819
:102BD0005AD22A4602A876E11D9800F058FE320427
:102BE000D20E009202460B46642101A800F08EFE30
:102BF000010049D42A4601A865E11D9800F05FFE56
:102C000007461D9800F064FE2B4622463946009682
:102C100000F0AEF921B0F0BD1D9F7869002842D1C7
:102C200079611D9800F0BDFC02902A460121AFA0F9
:102C3000A047002837D1029800280AD01F992346C0
:102C4000002200953046491C00F062F900282AD184
:102C500034E0002078612A460121A5A033E1014635
:102C60001D9800F025FC1F9A234600953146521C02
:102C7000FFF784FF002816D102980199401E814277
:102C800014DA2A46012100E014E19AA0A0470028A6
:102C900009D11F992346012200953046491C00F0B6
:102CA00037F9002808D00020786103E1234600228C
:102CB000009530461F99F2E70198401C0299019057
:102CC0008842CCDBC5E7B00603D58BA0039001207A
:102CD00002E08AA00390022005901D980890006AE7
:102CE00000287DD1089801621D9800F039FD0690FA
:102CF0002A46012182A0A0470028F2D10698002888
:102D00006FD01F992346002200953046491C00F0E1
:102D1000FFF80028E5D1F005800F75D01D9800F070
:102D200093FD0290C00000F049FE0190002857D0AA
:102D30000027069800F031FB0146F800019A009048
:102D40001150069800F018FD0146019A009880186D
:102D5000416006991D9800F015FD7F1C0690002823
:102D6000E7D10298874228D1300601D5654B00E0B3
:102D7000654B082202990198FDF7B2FD00274BE050
:102D80000198F90008184068069001461D9800F067
:102D9000D9FC0990002810D00698FDF712FE0146D4
:102DA0002B4622460096069800F0E2F82A4605993E
:102DB0000398A047002823D101E0FDF797FC1F9A54
:102DC000234600953146521C0998FFF7D7FE00288C
:102DD00016D10298401E874217D22A46012101E0EF
:102DE00065E06AE043A0A047002809D11F99234667
:102DF000012200953046491C00F08AF800280AD0CC
:102E0000019800F0D3FD52E039E0234600220095FE
:102E100030461F99F0E77F1C02988742B0D3019893
:102E200000F0C4FD49E0069800F0BAFC1F9A234662
:102E300000953146521CFFF7A1FE002837D10498B7
:102E4000002810D02A4601212AA0A04700282ED110
:102E50001F992346012200953046491C00F058F87E
:102E6000002824D109E023460022009530461F990E
:102E700000F04EF800281AD11FE004980690069939
:102E80001D9800F07FFC0490069800F075FC074642
:102E9000FDF797FD01462B4622463846009600F086
:102EA00067F82A4605990398A0470028BBD00899DF
:102EB000002008620020C043ACE6089900200862A8
:102EC0002A46012111A0A047A4E600006E756C6C93
:102ED00000000000747275650000000066616C738C
:102EE00065000000256C6C64000000005B000000C1
:102EF0005D0000002C0000003A0000003A200000B5
:102F00007B000000733A00087F3A00087D00000053
:102F1000F8B50E461C46C10618D0C006C00E00907B
:102F2000012110A0069AA0470027FF43002807D1DF
:102F3000002508E00C48069A0099A047002801D017
:102F40003846F8BD6D1CB542F4DB08E0002A06D017
:102F5000800604D4012105A0069A9847F8BD0020F8
:102F6000F8BD00000A000000583E000820000000E4
:102F7000FFB589B00F4606460B9B012140A00C9A75
:102F80009847002875D135463446F71918E0791B63
:102F900002AA284600F0CFFE04006AD002985C28FE
:102FA00010D022280ED020280CDB1299490501D51B
:102FB0002F2807D01299490601D57F2802DC254623
:102FC000BC42E4D3B54206D00B9BA91B30460C9AF9
:102FD000984700284DD1AC4206D10B9B012128A077
:102FE0000C9A98470DB0F0BD029A02210D2A23D009
:102FF00008DC082A1AD0092A20D00A2A1AD00C2A5A
:1030000006D115E0222A0FD02F2A19D05C2A09D028
:1030100001200004824215DA1AA105A8FDF7C0F9C3
:10302000062120E019A01FE019A01DE019A01BE057
:1030300019A019E019A017E019A015E019A013E0D4
:1030400019A011E0101A01031B22890DD2028A185F
:10305000029080053721800D8902431813A105A82D
:10306000FDF79EF90C2105A80B9B0C9A98470028A8
:1030700002D00020C043B5E725462E46A0E7000059
:10308000220000005C752530345800005C5C0000B4
:103090005C2200005C6200005C6600005C6E000068
:1030A0005C7200005C7400005C2F00005C752530D1
:1030B00034585C75253034580000000013460A4629
:1030C00010B50146184600F0EBFC10BD70B5044683
:1030D00088184E4A80180246154646E023785B1948
:1030E00065782D02EB18A5782D04EB18E5782D06F0
:1030F000EE1823799A1863791B029A18A3791B0496
:103100009A18E3791B069B18227A1018627A120229
:103110001018A27A12041018E27A12061518701B01
:103120001C262A46F24142401046ED181B1A1A2668
:10313000F2415A4013464019ED1A1826F2416A40EE
:1031400015461B18401B1026F2414240EE1810464F
:103150001B1A0D25EA4153408519F21A18461C2600
:10316000F04150405A190C390C340C29B6D80B00D8
:10317000FFF77FFC0D4A2724211E1C191613110E80
:103180000B082900E17A09060818A17A0904081831
:10319000617A09020818217A0818E17909068A1863
:1031A000A17909048A18617909028A1821798A1893
:1031B000E17809064D19A17809044D1961780902D1
:1031C0004D1921784D1912231146D9415040411A09
:1031D000152308464D40D841281A07240346E341E9
:1031E0004240D21A10241346E3415140C91A1C240C
:1031F0000B464840E341C01A42401223D841101AFE
:1032000041400822D041081A70BD0000EFBEADDE7B
:1032100010B5044600F004F8606800F0C7FB10BD6C
:1032200070B505460C35046908E06668A068241F7F
:1032300000F0DAF9204600F0B9FB3446AC42F4D194
:1032400070BDF8B50446406800F0B0FBA1680126E7
:10325000491C30468840A1600090C00000F0AEFBE1
:103260006060002803D0002025460C3509E00020CE
:10327000C043F8BDC10062680B1DD5506268401C98
:103280005550227A314691408142F3D822696D60CF
:103290002D600DE0171F56683868009900F09AFD00
:1032A0006068C90041183A1D204600F0D1F8324646
:1032B000AA42EFD10020F8BDFFB581B01F460E46EF
:1032C000FFF72EFC002813D13468251F2868B84268
:1032D00006D1284614300399FDF7AAFC002804D033
:1032E0007068A04204D06468EFE7284605B0F0BDDE
:1032F0000020FBE770B504460D460846FDF761FB6C
:103300000B490A6801462846FFF7E0FE237A0121AF
:103310009940491E01406268C900511803462A4677
:103320002046FFF7C9FF002800D0C06870BD00002C
:103330005000002070B50446002020600320A060EB
:10334000402000F03BFB6060002806D020460C3097
:10335000206100210123E06009E00020C04370BD2E
:10336000CA006568161DA8516568491CA850257AD1
:103370001A46AA408A42F3D8002070BD00B5014623
:103380000C3100F003F800BD103070470246486869
:103390000C32904200D100207047C06870478068AE
:1033A00070470000FFB50546027A012401682046F7
:1033B000904081B01F46814204D32846FFF741FF69
:1033C000002840D10298FDF7FCFA20490A6801461E
:1033D0000298FFF77BFE0646287A33468440641E37
:1033E00034406868E1004018009001462846029A7F
:1033F000FFF762FF040004D0E06800F0F5F8E76032
:103400001EE00298FDF7DDFA1521C8421BD21530E7
:1034100000F0D4FA040016D02660039820612046FC
:1034200014300299FDF7A9FA201DA060E7606060E2
:10343000221D2846009900F00BF82868401C2860DF
:10344000002005B0F0BD0020C043FAE75000002086
:1034500070B515460C460646FFF762FB002806D0FD
:10346000304629460C3000F0EDFA656003E029464D
:10347000206800F0E7FA256070BD70B5182000F0F4
:103480009DFA04000ED0012020700025E5606060E8
:103490000820A060202000F091FA2061002802D0CE
:1034A0002046656170BD204600F080FA002070BDA6
:1034B000002805D00278012A02D1C2688A4201D8C8
:1034C000002070470069890040587047F8B50546EC
:1034D000C06817464318AA682869934219D9064656
:1034E00054185000844200D80446A00000F066FA48
:1034F00000280ED0AC602861002F0BD0E9680023B3
:10350000009132461946FFF7F4FA304600F04EFAC1
:103510002869F8BD3046F8BDF8B516000D4605D04F
:1035200000280CD00178012909D102E00020C04315
:10353000F8BDB04203D00446C068A84201D210468C
:103540001DE0002201212046FFF7C0FF070015D033
:103550002069B84216D000233A4619460095FFF775
:10356000C8FAE0682B46401B00903A46691C206967
:10357000FFF7BFFA384600F019FA0AE0304600F0CB
:1035800027F8D3E7E0682A46431B691C2046FFF76B
:10359000BCFA2069A9004650E068401CE0600020A9
:1035A000F8BD002802D00178012901D00020704721
:1035B000C068704710B504464CB16068401C30B11B
:1035C0006068401E606010B9204600F019F810BD18
:1035D00010B5002807D041684A1C04D0491E41603C
:1035E00001D100F00DF810BD10B5002807D04168DA
:1035F0004A1C04D0491E416001D100F001F810BD01
:1036000070B500280AD00178002908D001290BD014
:1036100002291AD0032915D0042913D070BD0446FD
:103620000830FFF7F5FD0CE00446002504E0A90092
:103630004058FFF7CDFF6D1CE068A8422069F6D81E
:1036400005E0204600F0B2F970BD0446806800F045
:10365000ADF9F6E738B51C469B0509D4002804D01F
:103660000378012B04D0002B02D00020C04338BDCA
:103670000B46009200222146FFF780FA38BD000079
:103680003EB505460C46684600F04EFA002801D0CB
:1036900000203EBD23466A4609492846FFF7DAFF67
:1036A000002801D0002405E0684600F04EFA00F042
:1036B0008DF90446684600F02BFA20463EBD000016
:1036C000BD30000870B504460D46102000F076F9B4
:1036D000002804D0032101700121021D32C270BDF7
:1036E000002802D00178032902D00020014670474B
:1036F0008268C1681046704710B5242000F05EF95A
:10370000040004D00E480068002802D004E0002025
:1037100010BD002000F04AF80020207001206060F9
:1037200020460830FFF706FE002803D0204600F0B0
:103730003DF9ECE70020E0612062204610BD00006A
:103740005000002010B5002904D0002802D00278D3
:10375000002A01D0002010BD0830FFF7CBFD10BDBE
:1037600010B5002802D00178002901D0002010BD3A
:103770000830FFF703FE10BD10B5002801D0FFF799
:1037800003FE10BD10B5002808D00278002A05D12C
:10379000002903D00830FFF7F9FD10BD002010BD4F
:1037A00010B5002801D0FFF7FAFD10BD38B5084C60
:1037B000216800290AD1002807D1684600F06CF979
:1037C0000098002801D101200090206038BD000041
:1037D0005000002070B5154606460C000ED0084675
:1037E000FDF7EFF80146204600F086FA002805D0E4
:1037F0002A462146304600F007F870BD2846FFF7FC
:10380000E7FE0020C04370BD70B50E4D140007D018
:10381000002912D0002810D00278002A0DD101E032
:10382000284670BDA04208D0C269531CC36123461C
:103830000830FFF7B7FD0028F3D02046FFF7C8FE99
:10384000EEE70000FFFFFFFF002802D0017800290B
:1038500001D0002070478068704770B504460D465F
:10386000FFF734F9002805D120462946FFF722F951
:10387000002801D0002070BD102000F09FF8002823
:10388000F9D0042101700121021D32C270BD00284F
:1038900002D00178042902D00020014670478268D6
:1038A000C1681046704710B5040006D0FDF789F8CE
:1038B0000146204600F015F810BD002010BD00287C
:1038C00002D00178022901D000207047C0687047FB
:1038D000002802D00178022901D0002070478068BA
:1038E000704770B50D46040009D000F005FA0028B5
:1038F00005D000222946204600F029F970BD00209D
:1039000070BD00000048704730000020FEB507463B
:1039100008980C46002800D111200193009203461C
:1039200020A23846FCF752FD0026F643002811DBA2
:103930000546A0420ED22E213846FDF714F8002885
:1039400012D165213846FDF70EF800280CD1E81C8D
:10395000A04201D33046FEBD2E2078553021781983
:10396000417000218170AD1C65213846FCF7FBFFDA
:10397000002814D0461C841C40782D2802D1761CC7
:1039800000E0641C20783028FBD0B44207D0E01B54
:103990002A1A21463046FDF778F8A01B2D1A284632
:1039A000FEBD0000252E2A6700000000002802D07E
:1039B000014949680847704748000020002802D0A4
:1039C00001490968084770474800002010B50446BF
:1039D000FCF7F7FF0146204600F001F810BD70B576
:1039E00006460C46481CFFF7E9FF050007D02246B3
:1039F0003146FDF705F800202855284670BD002007
:103A000070BD000008B501214020FEF7DBFD01215B
:103A10000820FEF7D7FD10208DF803002020ADF818
:103A2000000003208DF8020069460448FEF750FBB1
:103A300069460348FEF74CFB08BD00000018014032
:103A4000000C0140486002680A6002685160016031
:103A50007047FFF771F8FFF7D5FF4FF4E13000F042
:103A600095F8FEF7C3FBFEF74DFCFEF7D7FC00BF51
:103A7000FEE710B549684068FDF7DAF810BD006848
:103A80000968884202D20020C0437047884201D0B2
:103A90000120704700207047014600207047000059
:103AA000F7B504468168406816460A1AB2421BD828
:103AB000164A914227D8B21C25D85242904222D8A9
:103AC0004D00711C4018854200D805462846FFF776
:103AD00075FF070017D006CC083CFCF791FF206863
:103AE000FFF764FF2760A56003CC32464018083C0E
:103AF0000199FCF785FF60688019606022680021E9
:103B000011540846FEBD0020C043FEBDFFFFFF7FED
:103B100010B504460068002801D0FFF747FF0020D9
:103B2000A0606060206010BD70B5044600251020C4
:103B30006560A060FFF742FF2060002802D005709A
:103B4000002070BD0020C04370BD0068704770B594
:103B500015460E46002811D0002D01D0044603E082
:103B6000FFF73DFF040009D01020FFF727FF0028D2
:103B700005D0022101700121021D52C270BD002D2D
:103B800002D12046FFF712FF002070BD10B586B0AD
:103B9000044601218803FEF715FD01210420FEF7EC
:103BA00011FD4FF40070ADF8140003208DF81600DD
:103BB00018208DF8170005A91C48FEF789FA4FF464
:103BC0008060ADF8140004208DF8170005A917488F
:103BD000FEF77EFA25208DF8000003208DF8010005
:103BE0008DF8020001208DF803006846FEF7B2FC54
:103BF00001940020ADF80800ADF80A00ADF80C0003
:103C0000ADF810000C20ADF80E0001A90848FEF731
:103C1000B9FE012240F225510548FEF78DFE012133
:103C20000348FEF746FE06B010BD00000008014044
:103C300000380140802801D20120704701468039B8
:103C40003F2913D9C02811D0C1280FD042391D29CE
:103C500001D8022070470146E0390F2901D803201E
:103C60007047F038042801D80420704700207047BE
:103C700070B50378022904D0032905D0042906D0A1
:103C80002EE0DB06DB0E04E01B071B0F01E05B07E9
:103C90005B0F0124055D2E46803E402E20D2AD06EE
:103CA0009B01AD0E5B19641C8C42F3D31048834218
:103CB00016DC1B20C0020F4C181AA04210D9022992
:103CC00004D0032905D0042906D00BE0802B07DBA4
:103CD00008E00120C00201E001200004834201DA73
:103CE000002070BD002A00D01360012070BD0000CC
:103CF000FFFF1000FF070000F0B50E460746002446
:103D000015E0385DFFF796FF050004D0012D0DD9B1
:103D1000301BA84201D20020F0BD381900222946EC
:103D2000FFF7A6FF0028F7D06419641E641CB44294
:103D3000E7D30120F0BD78B516460A00054617D036
:103D40002878FFF777FF040013D0012C09D09442A4
:103D50000FD801466A462846FFF78AFF002808D098
:103D600001E028780090002E01D0009830602819DA
:103D700078BD002078BD000010B500290AD0087871
:103D8000002807D005487844FCF752FF002801D0EE
:103D9000002010BD0248784410BD0000EA01000078
:103DA000E201000010B500290AD00878002807D0E9
:103DB00005487844FCF73CFF002801D0002010BDE6
:103DC0000248784410BD0000DA010000D201000072
:103DD000FDF7D1B9B0FBF1F202FB110110467047BB
:103DE000466179650000000000000000000000004E
:103DF00000000000416E6479000000000000000037
:103E000000000000000000004C6973610000000029
:103E10000000000000000000000000004265696A28
:103E2000696E670000000000000000000000000054
:103E30005368616E6748616900000000000000007F
:103E4000000000005368656E5A68656E000000004F
:103E50000000000000000000202020202020202062
:103E60002020202020202020202020202020202052
:103E700020202020202020200030313233343536DD
:103E8000373839414243444546403058003031329A
:103E9000333435363738396162636465664030786B
:103EA0000004000008000000000000000200010003
:103EB00000100000000000000000000002400000B0
:103EC000000000A00000000005400000000000C845
:103ED000000000000C4000000000409C00000000BA
:103EE000194000000020BCBE00000000344000006B
:103EF000BFC91B8E00000004B5400000504BCFD05E
:103F00006607E2CF010000006C4100003E8251AA2A
:103F1000DFEEA73401000000D9420000DCB5A0E2CA
:103F20003A301F97FFFFFFFFB4450000FD25A0C8F2
:103F3000E9A3C14FFFFFFFFFFF3F0000000000802B
:103F400000000000FF3F00000000008000000000B3
:103F50009C40000800000020540000006C01000894
:103F6000F04000085400002064140000880100089C
:103F70001C00000043000000F8FFFFFF0C000000E1
:103F80000E0000000F0000002E00000010010000D5
:103F900043000000F8FFFFFF004040404040404029
:103FA000404041414141414040404040404040400C
:103FB00040404040404040404005020202020202B0
:103FC00002020202020202020220202020202020FF
:103FD0002020200202020202020290909090909013
:103FE00010101010101010101010101010101010D1
:103FF0001010101002020202020288888888888845
:104000000808080808080808080808080808080830
:104010000808080802020202400000000000000038
:104020000000000000000000000000000000000090
:104030000000000000000000000000000000000080
:104040000000000000000000000000000000000070
:104050000000000000000000000000000000000060
:104060000000000000000000000000000000000050
:104070000000000000000000000000000000000040
:104080000000000000000000000000000000000030
:104090000000000000000000000000000000000020
:1040A00000000000000000000102030401020304FC
:1040B000060708090204060800A24A0400000000DE
:1040C00000000000010203040607080905000000C3
:1040D000FFFFFFFF06000000FFFFFFFF07000000DB
:1040E000FFFFFFFFC10200081F03000800000000DF
:0400000508000131BD
:00000001FF
